:400000000080002011000000190900001909000008B5044B1A6803F53F5302331A6000F083FC00BFFA46004010B5054C237833B9044B13B10448AFF300800123237010BDB4
:400040005081FF1F00000000E0140000084B10B51BB108490848AFF300800848036803B910BD074B002BFBD0BDE81040184700BF000000005481FF1FE0140000C880FF1F0A
:4000800000000000024A13780133DBB2137070476C81FF1F024A53780133DBB2537070476C81FF1F024A93780133DBB2937070476C81FF1F024AD3780133DBB2D3707047D7
:4000C0006C81FF1F024A13790133DBB2137170476C81FF1F024A53790133DBB2537170476C81FF1F024A93790133DBB2937170476C81FF1F30B4002408E005780B4603F81F
:40010000025B45784D700430043419469442F4DB30BC7047F8B51E4F4FF480433A0C0121084601F06DF91B4C207000F0F9FC1A4D287000F0F5FC194E307046F24C42B9B2B4
:40014000287800F01BFD46F28F42154989B2307800F014FD012332784FF46061287800F0F9FC00232A780121307800F0F3FC0421207800F0A3FC0121207800F04BFC2978E9
:40018000207800F08FFC0121207800F043FCF8BD9095FF1F8889FF1FA8A7FF1F93A3FF1F95A3FF1F2DE9F84F41F6FF734FF480420121084600F036FEDFF86CB28BF80000EE
:4001C00041F6FF734FF480420121084600F0DAFE844B187041F6FF734FF480420121084600F0C0FD804B187041F6FF734FF480420121084600F026FF7C4B187041F6FF7379
:400200004FF480420121084601F02CF8784B187041F6FF734FF480420121084600F09AFF744B187041F6FF734FF480420121084601F0A0F8704B187000F072FCDFF8ECA14F
:400240008AF8000000F06CFCDFF8E49189F8000000F066FCDFF8DC8188F8000000F060FC664F387000F05CFC654E307000F058FC644D287000F054FC634C20709AF80000EF
:40028000062302464FF4806100F064FC99F80000062302464FF4806100F05CFC98F80000062302464FF4806100F054FC3878062302464FF4806100F04DFC307806230246EF
:4002C0004FF4806100F046FC2878062302464FF4806100F03FFC2078062302464FF4806100F038FC494A92B246F24A419AF8000000F044FC464A92B246F2494199F8000074
:4003000000F03CFC434A92B246F24B5198F8000000F034FC404A92B246F24541387800F02DFC3E4A92B246F24551307800F026FC3B4A92B246F24751287800F01FFC394AD0
:4003400092B246F24241207800F018FC9AF800109BF8000000F0A6FB99F80010214B187800F0A0FB98F800101F4B187800F09AFB39781E4B187800F095FB31781C4B18780B
:4003800000F090FB29781B4B187800F08BFB2178194B187800F086FB01219BF8000000F039FB01210F4B187800F034FB01210E4B187800F02FFB01210C4B187800F02AFB70
:4003C00001210B4B187800F025FB0121094B187800F020FB0121084B187800F01BFBBDE8F88F00BF91A3FF1F8081FF1F8D91FF1F97A3FF1F92A3FF1F96A3FF1FACABFF1FBA
:400400008689FF1F8789FF1F94A3FF1F8485FF1F8C8DFF1FA8A3FF1FACA7FF1F8C89FF1F8481FF1F9091FF1F8E91FF1F8589FF1F8489FF1F8C91FF1F08B562B6FFF7B2FEF5
:4004400000F02EFD052000F0A7FB00F041FC052000F0A2FB00F0C4FC052000F09DFB00F0CFFD052000F098FB00F0DAFE052000F093FB00F04DFE052000F08EFB00F058FF7F
:40048000052000F089FB00F019FD052000F084FB00F02CFC052000F07FFB00F0AFFC052000F07AFB00F0BAFD052000F075FB00F0C5FE052000F070FB00F038FE052000F0A3
:4004C0006BFB00F043FF052000F066FB00F0D2FB00F09CFB1A4B1A7802F0FD021A701A78184B1A70FFF716FE052000F055FB164800F012FD052000F04FFB144800F034FD11
:40050000052000F049FB124800F01EFC052000F043FB104800F0CEFD052000F03DFB0E4800F0D8FE052000F037FB0C4800F04AFE052000F031FB0A4800F054FF08BD00BF02
:400540008F64004095A3FF1F8500000095000000A5000000B5000000C5000000D5000000E500000008B562B6FFF766FF214B1B7813F0FF0F0CD04FF480621F491F48FFF7F9
:40058000B9FD1C4AD3790133DBB2D37100231370184B5B7813F0FF0F0CD04FF4806218491848FFF7A7FD134AD3790133DBB2D371002353700F4BDB7813F0FF0F0CD04FF414
:4005C000806211491148FFF795FD0A4AD3790133DBB2D3710023D370064BDB79DBB2022BC4D90B4A137843F0020313700022014BDA71BBE76C81FF1F9095FF1F8485FF1F6C
:400600009097FF1F8C8DFF1F909BFF1FACA7FF1F8F640040F0B40022174611E050F82760F3B226F0FF0608E001EB420511F812406D78A5550132013BDBB2002BF4D1013735
:40064000282FEBD9F0BC7047064B1B78DBB203F00701054A11701B09013213704422034B1A707047CF0100496E5800407658004008B50A46002100F02AFF08BD38B50222A7
:40068000234B1A801823234A1370072102321180023213700622204B1A700422A3F580731A701E4B1B78DBB21D4A137000241D4B1C804FF4716203F21E231A8041F25122E4
:4006C000023B1A8019250CE0174B1B7803F0010343EA440404F003044FF4F07000F0B0FE013D0DB1032CEFD10E4B07221A7000220E490A704820023108701A700222033B73
:400700001A700B4A137843F00303137038BD00BF80400040824000400043004089010049A1460040044000402542004006400040A243004008B500F0BFFE08BD38B572B646
:40074000504A137843F00403137000240CE04E4D630019194A0011462A44084691882858FFF786FF0134E4B20D2CF0D900240CE04548A20011194B000344B3F85C20996DF1
:40078000586DFFF7D7FF0134E4B2082CF0D93F494FF09040FFF73EFF04213D48FFF768FF04223C493C48FFF7C5FF04223B493C48FFF7C0FF04223B493B48FFF7BBFF042240
:4007C0003A493B48FFF7B6FF04223A493A48FFF7B1FF042239493A48FFF7ACFF042239493948FFF7A7FF04213848FFF741FF384A137843F0020313701032137843F002033F
:400800001370344C237843F040032370A2F58632513A137843F0100313700A222E492F48FFF788FF0A222E492E48FFF783FF0A222D492E48FFF77EFF0A222D492D48FFF723
:4008400079FF08222C492D48FFF774FF0A222C492C48FFF76FFF2C4A137843F0080313702A4D61232B70FFF709FFC1232B700122274B1A70FFF7E8FE0E2221462548FFF740
:4008800059FF38BDE8460040E4140000A400004800760040441100480876004048110048107600404C110048187600405011004820760040541100482876004058110048F3
:4008C000307600405C110048387600404076004003500140A043004000110048005100400C110048C051004018110048F051004024110048105100403011004822510040D6
:400900003811004830510040224300400048004004000840B043004008B500F0A1FD03680C2B00D1FEE7FEE708B5104E104D16E029686B68AC68002204E051F8040B43F8B2
:40094000040B0432A242F8D1E868002203E0002143F8041B04328242F9D11035013E002EE6D100F083FDFFF7FDFDFEE701000000B815000008B5114A114B1A60114A1368B1
:4009800043F40073136000230AE0032B03D80E4A52F8231000E00D490D4A42F8231001332F2BF2D90B4B1A780B4B1A70084A0B4B1A60FFF7C3FE00F013F808BD0004FA0578
:4009C0000CED00E014ED00E000000000190900000080FF1FBC760040C080FF1F08ED00E00B4A7F2313708021517007E0DA0002F1804202F5F042013BDBB21370002BF5D120
:400A0000DB0003F1804303F5F04300221A707047CC80FF1F172815D831B103010A495A5C42F020025A5405E0030107495A5C02F0DF025A540001044A835C43F00103835463
:400A400000207047012070471070004017280BD80001064A835C03F0F103490001F00E011943815400207047012070471070004041F6FF73994201D14FF4005141F6FF7352
:400A80009A4201D14FF40052172808D8C00000F1804000F5EC408180C280002070470120704700BF172805D8034B03EB00104172002070470120704710700040172809D8E7
:400AC000054B03EB0010037901F007011943017100207047012070471070004017281BD810B4C00000F1804404F5EC44D201D2B201F07F01114321709DF804201201D2B265
:400B000003F00F03134363709DF8083003F00F03A3700020E07001E00120704710BC704710B500F095FC0A4B5B78182B0BD9084A1478013B5370E30003F1804303F5F043BF
:400B40001B78137000E0FF2400F086FC204610BDCC80FF1F10F0800F0CD111F4704F0BD1C00000F1804000F5F04001808270C37000207047012070470120704710F0800FEF
:400B800008D1C00000F1804000F5F0408180C280002070470120704710B5044605E0084B186800F04DFCA4F50044B4F5004FF6D8034B586800FB04F000F042FC10BD00BF7A
:400BC000D480FF1F08B500F043FC094A137843F0200313700332137843F010031370043A137843F01003137000F036FC08BD00BF9C640040014B1878704700BF6F6400407A
:400C0000014B1878704700BF6B64004008B501E00A4B1B780A4B1B7813F0200FF8D100F017FC084B1A7842F001021A701A7802F0FE021A7000F010FC08BD00BF5C640040B5
:400C40006B6400409C64004008B50F22074B1A70FFF7DCFFFFF7CEFFFFF7D2FF0222044B1A700022043B1A7008BD00BF8C6400408F64004008B5054B1B7823B9FFF7E4FFDC
:400C80000122024B1A70FFF79DFF08BD7681FF1F08B500F0DDFB064A137843F02003137000F0DAFB034A137843F00403137008BD9A65004079640040044B1A7802F0F8024D
:400CC0001A701A78D2B21A70704700BF8865004008B5054B1B7823B9FFF7EEFF0122024B1A70FFF7D5FF08BD7781FF1F08B500F0AFFB064A137843F01003137000F0ACFB97
:400D0000034A137843F00203137008BD9865004079640040014B1B689865704708ED00E04001C0B2014B1870704700BF06E400E04022014B1A60704700E100E04022014B94
:400D40001A60704780E100E010B50446FFF7F6FF2046FFF7DFFF0720FFF7E2FFFFF7E8FF10BD00BFF0B583B016461F460B4C062525700023019300932B460A4601462846F6
:400D8000FFF7ACFE3A4631462078FFF771FE02212078FFF75BFE207803B0F0BDE480FF1F08B500F055FB064A137843F02003137000F052FB034A137843F00403137008BDD3
:400DC0009965004078650040044B1A7802F0F8021A701A78D2B21A70704700BF8B65004008B5054B1B7823B9FFF7EEFF0122024B1A70FFF7D5FF08BD7881FF1F08B500F04F
:400E000027FB064A137843F01003137000F024FB034A137843F00203137008BD9B65004078650040F0B583B016461F460B4C032525700023019300932B460A4601462846BB
:400E4000FFF74CFE3A4631462078FFF711FE02212078FFF7FBFD207803B0F0BDE580FF1F08B500F0F5FA064A137843F02003137000F0F2FA034A137843F00403137008BDF4
:400E80009E6400407D640040044B1A7802F0F8021A701A78D2B21A70704700BF8964004008B5054B1B7823B9FFF7EEFF0122024B1A70FFF7D5FF08BD7981FF1F08B500F088
:400EC000C7FA064A137843F01003137000F0C4FA034A137843F00203137008BD996400407D640040014B1B68D864704708ED00E04001C0B2014B1870704700BF03E400E0CE
:400F00000822014B1A60704700E100E00822014B1A60704780E100E010B50446FFF7F6FF2046FFF7DFFF0720FFF7E2FFFFF7E8FF10BD00BF014B1B68D865704708ED00E02E
:400F40004001C0B2014B1870704700BF07E400E08022014B1A60704700E100E08022014B1A60704780E100E010B50446FFF7F6FF2046FFF7DFFF0720FFF7E2FFFFF7E8FF5A
:400F800010BD00BFF0B583B016461F460B4C072525700023019300932B460A4601462846FFF79CFD3A4631462078FFF761FD02212078FFF74BFD207803B0F0BDE680FF1F4D
:400FC00008B500F045FA064A137843F02003137000F042FA034A137843F00403137008BD9564004076640040044B1A7802F0F8021A701A78D2B21A70704700BF84640040E3
:4010000008B5054B1B7823B9FFF7EEFF0122024B1A70FFF7D5FF08BD7A81FF1F08B500F017FA064A137843F01003137000F014FA034A137843F00203137008BD94640040BF
:4010400076640040F0B583B016461F460B4C022525700023019300932B460A4601462846FFF73CFD3A4631462078FFF701FD29462078FFF7EBFC207803B0F0BDE780FF1FD7
:40108000014B1B689864704708ED00E04001C0B2014B1870704700BF02E400E00422014B1A60704700E100E00422014B1A60704780E100E010B50446FFF7F6FF2046FFF778
:4010C000DFFF0720FFF7E2FFFFF7E8FF10BD00BF08B500F0BDF9064A137843F02003137000F0BAF9034A137843F00403137008BD9764004077650040044B1A7802F0F80273
:401100001A701A78D2B21A70704700BF8465004008B5054B1B7823B9FFF7EEFF0122024B1A70FFF7D5FF08BD7B81FF1F08B500F08FF9064A137843F01003137000F08CF996
:40114000034A137843F00203137008BD9465004077650040F0B583B016461F460B4C052525700023019300932B460A4601462846FFF7B4FC3A4631462078FFF779FC022190
:401180002078FFF763FC207803B0F0BDE880FF1F014B1B685865704708ED00E04001C0B2014B1870704700BF05E400E02022014B1A60704700E100E02022014B1A607047A7
:4011C00080E100E010B50446FFF7F6FF2046FFF7DFFF0720FFF7E2FFFFF7E8FF10BD00BF08B500F035F9064A137843F02003137000F032F9034A137843F00403137008BD0F
:401200009565004076650040044B1A7802F0F8021A701A78D2B21A70704700BF8665004008B5054B1B7823B9FFF7EEFF0122024B1A70FFF7D5FF08BD7C81FF1F08B500F011
:4012400007F9064A137843F01003137000F004F9034A137843F00203137008BD9665004076650040F0B583B016461F460B4C012525700023019300932B460A4601462846C4
:40128000FFF72CFC3A4631462078FFF7F1FB02212078FFF7DBFB207803B0F0BDE980FF1F014B1B685864704708ED00E04001C0B2014B1870704700BF01E400E00222014B50
:4012C0001A60704700E100E00222014B1A60704780E100E010B50446FFF7F6FF2046FFF7DFFF0720FFF7E2FFFFF7E8FF10BD00BF08B500F0ADF8064A137843F02003137079
:4013000000F0AAF8034A137843F00403137008BD9064004074640040044B1A7802F0F8021A701A78D2B21A70704700BF8864004008B5054B1B7823B9FFF7EEFF0122024B0D
:401340001A70FFF7D5FF08BD7D81FF1F08B500F07FF8064A137843F01003137000F07CF8034A137843F00203137008BD9864004074640040F0B583B016461F460B4C042547
:4013800025700023019300932B460A4601462846FFF7A4FB3A4631462078FFF769FB02212078FFF753FB207803B0F0BDEA80FF1F014B1B681865704708ED00E04001C0B250
:4013C000014B1870704700BF04E400E01022014B1A60704700E100E01022014B1A60704780E100E010B50446FFF7F6FF2046FFF7DFFF0720FFF7E2FFFFF7E8FF10BD00BFE0
:40140000F0B583B016461F460B4C082525700023019300930A4601462846FFF75FFB3A4631462078FFF724FB02212078FFF70EFB207803B0F0BD00BFEB80FF1F00000000BD
:401440000230800803D000BF01380046FCD17047EFF3108072B6704780F31088704700BF014B1868704700BF4C81FF1F0E4B70B51E460E4C0025E41AA410A54204D056F802
:40148000253098470135F8E700F084F8084B094C1E46E41AA4100025A54204D056F8253098470135F8E770BDA0150000A0150000A0150000A815000010B5431E0A449142F2
:4014C00004D011F8014B03F8014FF8E710BD03460244934202D003F8011BFAE77047000000000000405100403000000001408002000301408001000501408003000901404B
:401500000001800A01408001800C01408003001401408000001501408001001701408003001B0140000100400140000A004C0140000200500140200010510140F80C004871
:40154000060080020140000D0048800080040140800D0048800080080140000E00488000000A0140800E00488000000C0140000F0048800080140140800F0048800080168D
:401580000140001000488000801A01408010004880004300F8B500BFF8BC08BC9E4670474D00000075090000F8B500BFF8BC08BC9E46704729000000C8150000C880FF1F67
:4015C00088000000602A0000000000007F800000FF0100000000C05D80BB000030000000006CDC02FFFFFFFFFFFFFFFF000000000000000000000000000000000000000010
:401600000000000000000000000000009215000000000000000000000000000000000000000000000000000000000000000000000000000000000000000000000000000003
:40164000000000000000000000000000EC80FF1F000000000000000000000000000000000000000000000000000000000000000000000000000000000000000000000000E0
:40168000000000000000000000000000000000000000000000000000000000000000000000000000000000000000000000000000000000000000000000000000000000002A
:4016C00000000000000000000000000000000000000000000000000000000000000000000000000000000000000000000000000000000000000000000000000000000000EA
:4017000000000000000000000000000000000000000000000000000000000000000000000000000000000000000000000000000000000000000000000000000000000000A9
:401740000000000000000000000000000000000000000000000000000000000000000000000000000000000000000000000000000000000000000000000000000000000069
:020000040003F7
:0200000480007A
:400000000852004006640040036500405300014041010140350201405503014016040140480501405106014046070140130801404C090140210A0140520B0140150C01403F
:40004000540D0140460E0140350F0140111401404B1501402716014054170140471801404A1901401A1A0140521B0140084001400F4101400E42014008430140034401406D
:400080000945014002460140014701401048014016490140074C0140084D01400850014002510140010209101002110419226004618C7801807F827F857F877F8C0F8E7F15
:4000C000857F897F8A7F0003010803C004040502060207C009C00B200D040FC01004120113BF150117C01C011D801E041F402340251027C02B3F2DFF31FF360738805602B7
:400100005724580459045B045C105D105F018307850286078701881F89418A208B068C048E018F0790079218933F940195079606980299109A019B089D409E07A104A20F33
:40014000A301A407A580AB20AC27AD0FAE18AF10B008B230B340B40FB53FB780B920D206D804D904DB04DC11DD10DF010019012005140602071008010A020D020E010F14E6
:400180001582170818011C101D321F0121012202250426802704288829042B022E0A2F0931083242351036823708388039113B043E413F14430C44084608600868016911EB
:4001C0006A816B186D206F2070407108720273147F308001824083108D04C0ECC2F9C4B0CAFFCCFBCEFFD804E001E208E640051007C00B400D040FC011801340150217C05D
:4002000019011BC01FBF210823C0273F29C02B202DFF31FF4023410442064405450C46E0480949FF4AFF4BFF4C024D204F0550045602572859045A045B045C105D115F017F
:40024000624063016440650166506701684069016A706B106C406D100060010809010A040B101004111012121302184419101A01200821102602274029582A102D912F1076
:400280003004320233103769384039213A043B103C803D203E044044420143084522470448044C014D204E105248562058205A406020620867206D136E046F11745075488F
:4002C0007604772A8210862093209420960299209B049C89A001A132A608A702A810AC04B208B410B540B704C007C20EC40FCAFECCF7CE7FD0EFD234D60CD840E008E404FD
:40030000EE820B030E0213021E052205230527052A0330043103360337043E013F4052065401580459045B045C115D105F0101800540061007080A010D2A0E0211201240F6
:400340001514160219801A401C641D262242240A2628274229012B102E802F14320235083620374239203C023D40452E4C164E104F0158405A206710680469086D546E1269
:400380006F10761277087808790886018884920193209422964299089A409B019C899D80A001A110A70AC0E1C2F1C4EACA73CCF1CE94D0E0D230D60CD840E20AE612010400
:4003C00003010401051006C0070808020AC00B200C040D0F0EC00F1010FF130714C01502162017011A3F1B071C081D401EC022BF233F25802640281029072AC02C802D41FC
:400400002E402F06333F354036FF378039085206580459045B045C115D105F01808082408303864087068ABF8C088EC08F04923F940196C0970398029AC09C049EC0A41006
:40044000A6C0A8C0AA20ACFFB106B301B4FFBF04D602D728D804D904DB04DC11DD10DF01008A01200612070809880B840E1A0F40111412021541171419201D401F802204B1
:4004800023402410252426802C012D012E142F8031043681371838083B413C543E024A044B106208684169946C046E0C6F047188730489288F0290449140929093019520CB
:4004C000971899049A129B199C409D419E80A203A504A71AAC12B001B608C0EFC2FFC4F7CAF0CCF2CEFBD802E688EE40000107040B03140217031B0620023201330634022B
:4005000037013F405401580459045B045C115D105F01020503940640080109080A040B010E1010A012121320168018041A841B801D101E102048210822122504264028015D
:4005400029402A053080310833103624384439023A103B013D083F2040444108480449805040531058105A405E805F1069186B2078087908811087018A808D04920893105A
:4005800098109B089C80A2A4A310A720B320B410B580C01FC22FC41FCA0BCC6ECE6FD007D20CD63CE424E640EE2081A48340856487088A028D6C912C934095719782999188
:4005C0009B4E9DC09F2FA16CA201A940AB2CAC01AD08AE02AF10B1C0B30FB403B731BBC2D440D804D904DB04DC01DF01018603080510080109800A200C100D10100E110122
:4006000014801580180419031A481B081C081D10202222012480254126482720282529412E102F823184321136583701382039053B803C803D023E044024424043084807ED
:400640004A804B8051106402662067208410851086408A208D4090209185923493309480980299449A209B099F20A048A180A214A392A541A648A720B201C04FC20DC49B35
:40068000CABFCCFFCEDFD007D20CD870E020E610800482038403865494089E10A008A801AA36AC65AE02B007B408B670B820BA02D206D804DB04DD10DF010102022004806A
:4006C0000520076009080A020EA00F0A118012881602171519221A021D0A1E021F1026802DA02E042F803480366837013D023E103F08454247204C044F4A5504562057425D
:4007000059045A086002630265026A086B086E146FD5744075807602820487508E018F08902891859220961499409C809D049E019F21A008A180A230A310A440A545A6019B
:40074000A7E2AE20AF12B440B680B758C0FCC2F5C4FBCAF0CCF0CEE0D0B0D230D880E602E810010803C006EC073F09020BC00D800F4012011501161217C019C01B201CE02A
:400780001FBF2340240425FF2643282129102A022BC02C882D042E032FC03010340F36E037FF3E4056025728580459045B045C105D105F01810285D2870489208BD08DD664
:4007C00091D69529974699179B289D219F8EA1D6A9D0AB06AD04B101B3F0B50FB708B920BB08BF41D409D604D904DB04DF01000409040A400B0111801220132015041610E4
:4008000018051A40218024982670270429402A112B202E102F8230083180321034803725382039813A043C903D023E045E825F18610462046680678069856A2070187140CD
:40084000830187408C01C004C20DC407CABFCCFECEFFD6F0D892E00107020D010E010F021A021C011E022301330334035401580459045B045C115D105F01018005010612AA
:40088000070809400A080C080D200E81150417121A081C011D211E101F1121042640274128802D402E212F113650370A39883E16452047054D404E04551057045AA06610AE
:4008C0006C086D846E25762277188480858088408C018F44918092A09401950896059A109B029C409E029F18A408A550A704AF04B620C0F1C2F3C470CAF1CCF0CEEAD0E0D0
:40090000D230D60CD820E0A0E210E602E808EA100104020C03C0073F0B400C010D800E020F4011FF1502160217C019011A0C1BC01E101FBF2108220123C02510261827C071
:4009400029C02B2032033404361837FF3E1052065401580459045B045C115D105F010084016204010701081009880B040E220F08111412021440170419521A401B101E2A32
:400980001F082004212026802702281029622C082E0531A83681371839543D883E1240044104424045144610472049514A024E0C52205C405F20681469206A086D086E10D9
:4009C0006F047E308040820488108B408D109194928093049520978899209B019D01A040A188A404A608A718AC41AE14B680C09FC2E7C437CAEFCCFECEFED007D20CD630EB
:400A0000E610EC10EE03020C050207C00A0C0B3F0D080FC013BF1501161817C01A021B401DFF1E10210423C0251027C029C02A012B202C012D802E022F4031FF320434036C
:400A400036183E0452065401580459045B045C115D105F018211860287028B038C048E088F0994209A119B099E08A504A603A904AA04B010B104B220B303B403B60CB7086C
:400A8000BE01BF40D602D728D804D904DB04DC11DD10DF0102800321051006800A890B500C400DA00E20100413081580160819801A411B241C201DA021042241260129040F
:400AC0002B042C022E163210344035043611388039183C803F144A0C4B105D205F406208684269806A146B406E287104720273248A41908091109228950296409808992002
:400B00009B089C809DC09E419F14A280A4A0A721AA40AD20AF10C05DC2E7C4C6CAF6CCF4CE7ED630D802E48005FF0B400D800F4013BF15C0172019101BC01D081FC02101D0
:400B400023C0250227C02B3F2D042FC031FF5602572459045B045C105D105F010504060207480D020E120F04141417201D161E201F02210122012708280829402A092C14EF
:400B80002E062F0230803201331435203611374839583E103F04452247084D214F8256805D805F106008688069406B157020714072287A807B408110828085018710889081
:400BC00089808E21911892149304950298089A029B609C809D509E819F15A010A120A201A4A0A701AC04B208C0F0C2F0C460CAFFCCFFCE6ED0E0D230D630D804E020E60271
:400C000038013C24411087088F10CEE0D010E21038083F1242085B108710940195209B18A804B010CEE0D010D480E210EA20470853405508851087408D08940995209B08D3
:400C40009E08A701D080D460E25087018A20902094099E08A701B410E61082028D10E40805205202531055108520A110A202C001D407B310E80480010502070450105620ED
:400C80008C019020928094099A209F04AA40AE08B704C0A0D460EEC001010540092017025A806320852089408B028F1092809501AD03B404C090C240C420D480D840E0102C
:400CC000E810EC100F40608088809002C204D802E0041302700187029002B340C408DC01EA04000308030A020C030E0310021A021C02005501550000AAAA02000000000001
:400D0000000000070102060102000120070F18100000073F270718000000070700000000040001001F0120060710000800040F01080000000F3F3000002000000000000083
:400D40002604010003000C0E14FFFFFF02200005040000000100000004040404111100010000400140015001400170104010000000000000000000000000000000000000D7
:400D800000010002010006000200010000080F1007001802270418001F0020100004070000000000002007000700000804000101082030040F18000300000000000000007F
:400DC0002304050006CE000003FFFFFF0220000504000000000002280404040411110001000040014001500140017010401000000000000000000000000000000000000087
:400E00004000000F00270718070200014107061804000100101F08200000200700003F070001070602070100800000000F0410014008000F3F3080002000000000000000C2
:400E4000320406000500EC000CFFFFFF02200005040006000100000004040404111100010000400140015001400170104010000000000000000000000000000000000000F3
:400E80001F00200700000707070218010200012004400100078000000007000000000F3F00100708000F001001410606270418010F8008403000003F0080000000000000E2
:400EC0004503020006C0E0000AFFFFFF02200005040000000000000004040400110100010000400140015001400170104010000000000000000000000000000000000000CD
:400F0000C18000000700189F04C000080100000022900840081F2120100000FF007F408001C0C002C0C00004C1000060C1C0000180003F00400080FF080000000000554070
:400F40006102400005DBFECB3FFFFFFF2200F008040000000000022C04040404000000010000C00040011011C0010011400140010000000000000000000000000000000016
:400F8000070418014000000702400100040001002700183F070200011F0720000000072000000F070010070801410606000F0010084040000F00303F008000000000000061
:400FC000240503000600E00C18FFFFFF0220000504000000000002240404040411110001000040014001500140017010401000000000000000000000000000000000000056
:401000001F0020002700180700070F00000007070000000001010606020001200404010100100008000207010700003F070F18100F000000303F0800002000000000000080
:401040004205060003C0E0000AFFFFFF0220000504000600000000000404040411110001000040014001500140017010401000000000000000000000000000000000000031
:40108000000007001F02200127071800040001000700183F070000200210010800000F07000400010000070701010606000F001008000F00303F0000002000000000000000
:4010C0006304050002E00C0006FFFFFF0220000504000000010000000404040411110001000040014001500140017010401000000000000000000000000000000000000050
:401100000200000202000200000000008C00428C8C008C000000000005000A0505000500000000001000201B1B0010000000000008070700070000002200492222002200B3
:401140000000000000010000000200000003000000040000000500000006000000070000000000000000000000000000000000000000000000000000000000000000000053
:40118000000000000000000000000000000000000000000000000000000000000000000000000000000000000000000000000000000000000000000000000000000000002F
:4011C00000000000000000000000000000000000000000000000000000000000000000000000000000000000000000000000000000000000000000000000000000000000EF
:4012000000000000000000000000000000000000000000000000000000000000000000000000000000000000000000000000000000000000000000000000000000000000AE
:40124000000000000000000000000000000000000000000000000000000000000000000000000000000000000000000000000000000000000000000000000000000000006E
:0200000490006A
:0400000000004005B7
:0200000490105A
:04000000BC90ACAF55
:0200000490303A
:02000000AAED67
:0200000490402A
:4000000000000000000000000000000000000000000000000000000000000000000000000000000000000000000000000000000000000000000000000000000000000000C0
:400040000000000000000000000000000000000000000000000000000000000000000000000000000000000000000000000000000000000000000000000000000000000080
:400080000000000000000000000000000000000000000000000000000000000000000000000000000000000000000000000000000000000000000000000000000000000040
:4000C0000000000000000000000000000000000000000000000000000000000000000000000000000000000000000000000000000000000000000000000000000000000000
:0200000490501A
:0C00000000012E16106900012E22BB56D4
:00000001FF