:4000000000800020110000001D0B00001D0B000008B5044B1A6803F53F5302331A6000F085FD00BFFA46004010B5054C237833B9044B13B10448AFF300800123237010BDA5
:400040004881FF1F00000000B8160000084B10B51BB108490848AFF300800848036803B910BD074B002BFBD0BDE81040184700BF000000004C81FF1FB8160000C880FF1F66
:400080000000000008B50A4A13780133DBB21370084B1978084A4FF43E7301FB032292B246F24241054B187800F06AFE08BD00BF6481FF1FCC80FF1F7487FF1F658DFF1FC4
:4000C00008B50A4A53780133DBB25370084B1978084A4FF43E7301FB032292B246F24851054B187800F04CFE08BD00BF6481FF1FCC80FF1F5C93FF1F648DFF1F08B50A4A08
:4001000093780133DBB29370084B1978084A4FF43E7301FB032292B246F24741054B187800F02EFE08BD00BF6481FF1FCC80FF1FF0AEFF1F4C99FF1F08B50A4AD378013365
:40014000DBB2D370084B1978084A4FF43E7301FB032292B246F24551054B187800F010FE08BD00BF6481FF1FCC80FF1FE4B4FF1FD4BAFF1F08B50A4A13790133DBB213713F
:40018000084B1978084A4FF43E7301FB032292B246F24441054B187800F0F2FD08BD00BF6481FF1FCC80FF1F6C8DFF1F668DFF1F08B50A4A53790133DBB25371084B1978D5
:4001C000084A4FF43E7301FB032292B246F24B41054B187800F0D4FD08BD00BF6481FF1FCC80FF1F8481FF1F678DFF1F08B50A4A93790133DBB29371084B1978084A4FF46E
:400200003E7301FB032292B246F24141054B187800F0B6FD08BD00BF6481FF1FCC80FF1F5099FF1FDAAEFF1F10B4002308E00C7804704C7844708C788470043104330330F7
:400240009342F4DB10BC7047F8B51E4F4FF480433A0C0121084601F0BFF91B4C207000F061FD1A4D287000F05DFD194E307046F24D42B9B2287800F083FD46F28C4215499D
:4002800089B2307800F07CFD0123327840F69671287800F061FD00232A780121307800F05BFD0421207800F00BFD0121207800F0B3FC2978207800F0F7FC0121207800F04E
:4002C000ABFCF8BD409FFF1F688DFF1FE0B4FF1FD9AEFF1FDBAEFF1F2DE9F84F41F6FF734FF480420121084600F088FEDFF86CB28BF8000041F6FF734FF48042012108460D
:4003000000F02CFF844B187041F6FF734FF480420121084600F012FE804B187041F6FF734FF480420121084600F078FF7C4B187041F6FF734FF480420121084601F07EF881
:40034000784B187041F6FF734FF480420121084600F0ECFF744B187041F6FF734FF480420121084601F0F2F8704B187000F0DAFCDFF8ECA18AF8000000F0D4FCDFF8E491FE
:4003800089F8000000F0CEFCDFF8DC8188F8000000F0C8FC664F387000F0C4FC654E307000F0C0FC644D287000F0BCFC634C20709AF80000062302464FF43E7100F0CCFCB1
:4003C00099F80000062302464FF43E7100F0C4FC98F80000062302464FF43E7100F0BCFC3878062302464FF43E7100F0B5FC3078062302464FF43E7100F0AEFC287806239C
:4004000002464FF43E7100F0A7FC2078062302464FF43E7100F0A0FC494A92B246F242419AF8000000F0ACFC464A92B246F2485199F8000000F0A4FC434A92B246F2474155
:4004400098F8000000F09CFC404A92B246F24551387800F095FC3E4A92B246F24441307800F08EFC3B4A92B246F24B41287800F087FC394A92B246F24141207800F080FCC7
:400480009AF800109BF8000000F00EFC99F80010214B187800F008FC98F800101F4B187800F002FC39781E4B187800F0FDFB31781C4B187800F0F8FB29781B4B187800F058
:4004C000F3FB2178194B187800F0EEFB01219BF8000000F0A1FB01210F4B187800F09CFB01210E4B187800F097FB01210C4B187800F092FB01210B4B187800F08DFB01211F
:40050000094B187800F088FB0121084B187800F083FBBDE8F88F00BFD7AEFF1F8081FF1F4D99FF1FDDAEFF1FD8AEFF1FDCAEFF1FD4BAFF1F668DFF1F678DFF1FDAAEFF1FD6
:400540007487FF1F5C93FF1FF0AEFF1FE4B4FF1F6C8DFF1F8481FF1F5099FF1F4E99FF1F658DFF1F648DFF1F4C99FF1F08B562B6FFF7B2FE00F080FD00F096FC00F01CFD08
:4005800000F02AFE00F038FF00F0AEFE00F0BCFF00F080FD00F096FC00F01CFD00F02AFE00F038FF00F0AEFE00F0BCFF00F04EFC00F018FC0F4B1A7802F0FD021A701A7800
:4005C0000D4B1A70FFF740FE0C4800F091FD0C4800F0B6FD0B4800F0A3FC0B4800F056FE0A4800F063FF0A4800F0D8FE094800F0E5FF08BD8C640040DBAEFF1F85000000A1
:40060000C1000000FD0000003901000075010000B1010000ED01000008B562B6FFF7A6FF6C4B1B7813F0FF0F15D06A4CE0794FF43E731A46684903FB00116848FFF7F4FD42
:40064000237A0133DBB22372637AB3FA83F35B096372002323705F4B5B7813F0FF0F15D05C4CE0794FF43E731A465D4903FB00115C48FFF7D9FD237A0133DBB22372A37A9B
:40068000B3FA83F35B09A37200236370514B9B7813F0FF0F15D04F4CE0794FF43E731A46514903FB00115148FFF7BEFD237A0133DBB22372E37AB3FA83F35B09E372002379
:4006C000A370444BDB7813F0FF0F15D0414CE0794FF43E731A46464903FB00114548FFF7A3FD237A0133DBB22372237BB3FA83F35B0923730023E370364B1B7913F0FF0FCA
:4007000015D0344CE0794FF43E731A463A4903FB00113A48FFF788FD237A0133DBB22372637BB3FA83F35B09637300232371294B5B7913F0FF0F15D0264CE0794FF43E7336
:400740001A462F4903FB00112E48FFF76DFD237A0133DBB22372A37BB3FA83F35B09A373002363711B4B9B7913F0FF0F15D0194CE0794FF43E731A46234903FB00112348AF
:40078000FFF752FD237A0133DBB22372E37BB3FA83F35B09E3730023A3710E4B1B7ADBB2062B7FF63DAF1A4A137843F002031370184B1A7812F0FF0F0CBF012200221A7039
:4007C000044AD379B3FA83F35B09D3710023137226E700BF6481FF1F7487FF1F409FFF1F5C93FF1F7AA1FF1FF0AEFF1FB4A3FF1FE4B4FF1FEEA5FF1F6C8DFF1F28A8FF1F24
:400800008481FF1F62AAFF1F5099FF1F9CACFF1F8C640040CC80FF1FF0B40022174611E050F82760F3B226F0FF0608E001EB420511F812406D78A5550132013BDBB2002B45
:40084000F4D10137272FEBD9F0BC7047064B1B78DBB203F00701054A11701B09013213704422034B1A707047CF0100496E5800407658004008B50A46002100F014FF08BDD0
:4008800038B50122234B1A801823234A1370082102321180023213700622204B1A700422A3F580731A701E4B1B78DBB21D4A137000241D4B1C804FF4716203F21E231A8077
:4008C00041F25122023B1A8019250CE0174B1B7803F0010343EA440404F003044FF4F07000F09AFE013D0DB1032CEFD10E4B07221A7000220E490A704820023108701A7043
:400900000222033B1A700B4A137843F00303137038BD00BF80400040824000400043004089010049A1460040044000402542004006400040A243004008B500F0A9FE08BD0D
:4009400038B572B6504A137843F00403137000240CE04E4D630019194A0011462A44084691882858FFF786FF0134E4B20B2CF0D900240CE04548A20011194B000344B3F85E
:400980005020D96C986CFFF7D7FF0134E4B2052CF0D93F494FF09040FFF73EFF04213D48FFF768FF04223C493C48FFF7C5FF04223B493C48FFF7C0FF04223B493B48FFF72D
:4009C000BBFF04223A493B48FFF7B6FF04223A493A48FFF7B1FF042239493A48FFF7ACFF04213948FFF746FF384A137843F0020313701032137843F002031370344C23787E
:400A000043F040032370A2F58632513A137843F0100313700A222F492F48FFF78DFF0A222E492F48FFF788FF05222E492E48FFF783FF0A222D492E48FFF77EFF0A222D4992
:400A40002D48FFF779FF08222C492D48FFF774FF0A222C492C48FFF76FFF2C4A137843F0080313702A4D61232B70FFF709FFC1232B700122274B1A70FFF7E8FE0E22214636
:400A80002548FFF759FF38BDE8460040BC160000A000004800760040B00F004808760040B40F004810760040B80F004818760040BC0F004820760040C00F00482876004057
:400AC000C40F0048307600403876004003500140A0430040640F004800510040700F0048C05100407C0F0048CB510040840F0048F0510040900F0048105100409C0F0048E6
:400B000022510040A40F004830510040224300400048004004000840B043004008B500F08BFD03680C2B00D1FEE7FEE708B5104E104D16E029686B68AC68002204E051F8F3
:400B4000040B43F8040B0432A242F8D1E868002203E0002143F8041B04328242F9D11035013E002EE6D100F06DFDFFF755FDFEE7010000006817000008B5114A114B1A6047
:400B8000114A136843F40073136000230AE0032B03D80E4A52F8231000E00D490D4A42F8231001332F2BF2D90B4B1A780B4B1A70084A0B4B1A60FFF7C3FE00F013F808BDA3
:400BC0000004FA050CED00E014ED00E0000000001D0B00000080FF1FBC760040C080FF1F08ED00E00B4A7F2313708021517007E0DA0002F1804202F5F042013BDBB2137006
:400C0000002BF5D1DB0003F1804303F5F04300221A707047D080FF1F172815D831B103010A495A5C42F020025A5405E0030107495A5C02F0DF025A540001044A835C43F047
:400C40000103835400207047012070471070004017280BD80001064A835C03F0F103490001F00E011943815400207047012070471070004041F6FF73994201D14FF400511E
:400C800041F6FF739A4201D14FF40052172808D8C00000F1804000F5EC408180C280002070470120704700BF172805D8034B03EB001041720020704701207047107000405C
:400CC000172809D8054B03EB0010037901F007011943017100207047012070471070004017281BD810B4C00000F1804404F5EC44D201D2B201F07F01114321709DF80420DA
:400D00001201D2B203F00F03134363709DF8083003F00F03A3700020E07001E00120704710BC704710B500F07FFC0A4B5B78182B0BD9084A1478013B5370E30003F1804367
:400D400003F5F0431B78137000E0FF2400F070FC204610BDD080FF1F10F0800F0CD111F4704F0BD1C00000F1804000F5F04001808270C37000207047012070470120704763
:400D800010F0800F08D1C00000F1804000F5F0408180C280002070470120704708B500F043FC094A137843F0200313700132137843F0100313700132137843F01003137092
:400DC00000F036FC08BD00BF9B640040014B1878704700BF6C640040014B1878704700BF6D64004008B501E00A4B1B780A4B1B7813F0200FF8D100F017FC084B1A7842F0C6
:400E000001021A701A7802F0FE021A7000F010FC08BD00BF5D6400406D6400409D64004008B50F22074B1A70FFF7DCFFFFF7CEFFFFF7D2FF0222044B1A70002201331A7042
:400E400008BD00BF8B6400408C64004008B5054B1B7823B9FFF7E4FF0122024B1A70FFF79DFF08BD7681FF1F08B500F0DDFB064A137843F02003137000F0DAFB034A1378FE
:400E800043F00403137008BD9865004078640040044B1A7802F0F8021A701A78D2B21A70704700BF8864004008B5054B1B7823B9FFF7EEFF0122024B1A70FFF7D5FF08BDD6
:400EC0007781FF1F08B500F0AFFB064A137843F01003137000F0ACFB034A137843F00203137008BD9864004078640040014B1B685865704708ED00E04001C0B2014B1870FB
:400F0000704700BF05E400E02022014B1A60704700E100E02022014B1A60704780E100E010B50446FFF7F6FF2046FFF7DFFF0720FFF7E2FFFFF7E8FF10BD00BFF0B583B07F
:400F400016461F460B4C052525700023019300932B460A4601462846FFF7C2FE3A4631462078FFF787FE02212078FFF771FE207803B0F0BDD880FF1F08B500F055FB064A3F
:400F8000137843F02003137000F052FB034A137843F00403137008BD9965004079640040044B1A7802F0F8021A701A78D2B21A70704700BF8764004008B5054B1B7823B9C7
:400FC000FFF7EEFF0122024B1A70FFF7D5FF08BD7881FF1F08B500F027FB064A137843F01003137000F024FB034A137843F00203137008BD9764004079640040F0B583B064
:4010000016461F460B4C022525700023019300932B460A4601462846FFF762FE3A4631462078FFF727FE29462078FFF711FE207803B0F0BDD980FF1F08B500F0F5FA064AB5
:40104000137843F02003137000F0F2FA034A137843F00403137008BD9564004074640040044B1A7802F0F8021A701A78D2B21A70704700BF8364004008B5054B1B7823B975
:40108000FFF7EEFF0122024B1A70FFF7D5FF08BD7981FF1F08B500F0C7FA064A137843F01003137000F0C4FA034A137843F00203137008BD9364004074640040014B1B6876
:4010C0009864704708ED00E04001C0B2014B1870704700BF02E400E00422014B1A60704700E100E00422014B1A60704780E100E010B50446FFF7F6FF2046FFF7DFFF072002
:40110000FFF7E2FFFFF7E8FF10BD00BF014B1B689865704708ED00E04001C0B2014B1870704700BF06E400E04022014B1A60704700E100E04022014B1A60704780E100E090
:4011400010B50446FFF7F6FF2046FFF7DFFF0720FFF7E2FFFFF7E8FF10BD00BFF0B583B016461F460B4C062525700023019300932B460A4601462846FFF7B2FD3A463146C8
:401180002078FFF777FD02212078FFF761FD207803B0F0BDDA80FF1F08B500F045FA064A137843F02003137000F042FA034A137843F00403137008BD956500407164004039
:4011C000044B1A7802F0F8021A701A78D2B21A70704700BF8665004008B5054B1B7823B9FFF7EEFF0122024B1A70FFF7D5FF08BD7A81FF1F08B500F017FA064A137843F08A
:401200001003137000F014FA034A137843F00203137008BD9665004071640040F0B583B016461F460B4C012525700023019300932B460A4601462846FFF752FD3A463146CB
:401240002078FFF717FD02212078FFF701FD207803B0F0BDDB80FF1F014B1B685864704708ED00E04001C0B2014B1870704700BF01E400E00222014B1A60704700E100E071
:401280000222014B1A60704780E100E010B50446FFF7F6FF2046FFF7DFFF0720FFF7E2FFFFF7E8FF10BD00BF08B500F0BDF9064A137843F02003137000F0BAF9034A13781F
:4012C00043F00403137008BD9F6400407A640040044B1A7802F0F8021A701A78D2B21A70704700BF8964004008B5054B1B7823B9FFF7EEFF0122024B1A70FFF7D5FF08BD89
:401300007B81FF1F08B500F08FF9064A137843F01003137000F08CF9034A137843F00203137008BD996400407A640040F0B583B016461F460B4C042525700023019300939A
:401340002B460A4601462846FFF7CAFC3A4631462078FFF78FFC02212078FFF779FC207803B0F0BDDC80FF1F014B1B681865704708ED00E04001C0B2014B1870704700BFBE
:4013800004E400E01022014B1A60704700E100E01022014B1A60704780E100E010B50446FFF7F6FF2046FFF7DFFF0720FFF7E2FFFFF7E8FF10BD00BF08B500F035F9064A3F
:4013C000137843F02003137000F032F9034A137843F00403137008BD9664004076650040044B1A7802F0F8021A701A78D2B21A70704700BF8465004008B5054B1B7823B9AD
:40140000FFF7EEFF0122024B1A70FFF7D5FF08BD7C81FF1F08B500F007F9064A137843F01003137000F004F9034A137843F00203137008BD9465004076650040F0B583B063
:4014400016461F460B4D00242C700194009423460A4601462046FFF743FC3A4631462878FFF708FC02212878FFF7F2FB287803B0F0BD00BFDD80FF1F014B1B68186470475C
:4014800008ED00E04001C0B2014B1870704700BF00E400E00122014B1A60704700E100E00122014B1A60704780E100E010B50446FFF7F6FF2046FFF7DFFF0720FFF7E2FF22
:4014C000FFF7E8FF10BD00BF08B500F0ADF8064A137843F02003137000F0AAF8034A137843F00403137008BD9264004070640040044B1A7802F0F8021A701A78D2B21A7050
:40150000704700BF8064004008B5054B1B7823B9FFF7EEFF0122024B1A70FFF7D5FF08BD7D81FF1F08B500F07FF8064A137843F01003137000F07CF8034A137843F00203D1
:40154000137008BD9064004070640040F0B583B016461F460B4C032525700023019300932B460A4601462846FFF7BAFB3A4631462078FFF77FFB02212078FFF769FB207817
:4015800003B0F0BDDE80FF1F014B1B68D864704708ED00E04001C0B2014B1870704700BF03E400E00822014B1A60704700E100E00822014B1A60704780E100E010B5044695
:4015C000FFF7F6FF2046FFF7DFFF0720FFF7E2FFFFF7E8FF10BD00BFF0B583B016461F460B4C072525700023019300930A4601462846FFF775FB3A4631462078FFF73AFB3F
:4016000002212078FFF724FB207803B0F0BD00BFDF80FF1F000000000230800803D000BF01380046FCD17047EFF3108072B6704780F31088704700BF014B1868704700BF43
:401640004081FF1F0E4B70B51E460E4C0025E41AA410A54204D056F8253098470135F8E700F070F8084B094C1E46E41AA4100025A54204D056F8253098470135F8E770BD6C
:401680005017000050170000501700005817000010B5431E0A44914204D011F8014B03F8014FF8E710BD03460244934202D003F8011BFAE770470000000000004051004069
:4016C0003000000001408000000101400001800201400004000701408003000B0140000500140140800000150140000380180140800300400140000A004C014000020050DF
:401700000140200080000140640C0048800000020140E40C0048800080060140640D00488000800A0140E40D0048800080140140640E0048800000180140E40E00488000AE
:4017400043000000F8B500BFF8BC08BC9E4670474D000000790B0000F8B500BFF8BC08BC9E4670472900000078170000C880FF1F80000000903900000000000001000000EF
:401780007F800000FF000000FFFFFFFFFFFFFFFF000000000000000000000000000000000000000000000000000000000000000040170000000000000000000000000000DC
:4017C000000000000000000000000000000000000000000000000000000000000000000000000000000000000000000000000000E080FF1F0000000000000000000000006B
:4018000000000000000000000000000000000000000000000000000000000000000000000000000000000000000000000000000000000000000000000000000000000000A8
:401840000000000000000000000000000000000000000000000000000000000000000000000000000000000000000000000000000000000000000000000000000000000068
:401880000000000000000000000000000000000000000000000000000000000000000000000000000000000000000000000000000000000000000000000000000000000028
:4018C00000000000000000000000000000000000000000000000000000000000000000000000000000000000000000000000000000000000000000000000000000000000E8
:020000040003F7
:0200000480007A
:400000000B520040056400400365004013000140360101400D0201404A0301405E04014049050140120601404D0701405308014049090140190A01404D0B0140610C01402E
:400040004C0D01405A0E01403B0F01400D1401404D1501405A16014057170140051801404D1901400A1B014006400140124101400C4201400B430140014401400A45014093
:4000800003460140044701400F4801401A490140054C0140024D0140085001400451014000020810091010061102182019026004610C78017904827F857F867F8B0F8F7F75
:4000C000857F887F897F03020B180F0C17101B0C2B012D012F023103331835043F105206540159045B045C105D105F01058006090D0A0E080F021511162017501D3B200813
:400100002101220423502510260A2B0A2D812E2831103204350136043750392A3A443DA23E043F02452A4E184F40564058805A2069286A046B086F2484408549860887209D
:4001400088088E10C0C0C2F0C4F0CAFCCCF6CEFDD0E0D230D60CE24086069A039E04A203B001B606BE01D401D804DB04DC01DD10DF0100080555082009200A020C200D0292
:400180000E2210801504160217121A421B401C221D2A1F0427402D012E202F12310832083410350237483C803E083F10442047124C804D804E1855405A60660467206D1368
:4001C0006E086F02744076297810791089409310951098409A049B0C9E299F40A008A501A604A702AC84B602B708C0F4C2F3C4F8CAF0CCF0CE70D0E0D230D60CD840E240F1
:40020000E628E810EE10010102020302120817021C011E0222012604270128042A08300C33033603402641054204440346E0470C481849FF4AFF4BFF4C024D204F05500471
:400240005206580459045A045B045C115D115F01624063016440650166506701684069016A706B106C406D10810482BF83018401850286C08701880289508AC08B0890FFC4
:40028000910F935094C095019620970698109AC09B609C089EC0A080A240A307A640A707A907AA3FAC04AEC0AF7FB0FFB33FB740B908D602D724D804D904DB04DC11DD10BC
:4002C000DF010380051509400A400C200E220F80100812A014081602170919801A401B801D011F02210827122B102C202D012F0A31083504371238023C203E0A4044410862
:4003000049404A08510452105C085D045F046704680469046B086C206D816E226F097514760A82808540950498409B049D959E029F12A019A340A424A611A902AA04B14002
:40034000B304C078C2F9C4FECAF2CCE2CEE1D007D20CD82013021A011E0226032B012D012E012F023603370356025728580459045B045C115D105F01009003A008800908B0
:400380000A400B040E020F08100412821308158016041714181019801A681B201E02200823042702288C2F06310832123380370239223B844010410142404320480549028F
:4003C0004A80520459805B1064106C016D0A6F097410762181048340840189028B489108944698409A109B049D409E04A628A710AA04AC01B210B640C00FC2CFC4AFCA3506
:40040000CC8FCE0FD007D20CD60CD840E608EA04EE2002BF0303040106C008020AC00B060E3F130814C01620171018101AC01B041C801E40200422C0264028FF2B032C08CB
:400440002D082EC02F103306351836FF37013F4052065401580459045B045C115D105F0180808240832084C0862087408ABF8C028EC08F02901092C09311940196C09708BD
:4004800098FF9B119C049EC09F20A008A104A2C0A308A63FA703AA40AB60AF04B0FFB110B30CB560B703BF01D206D401D804D904DB04DC11DD10DF01000801020206044196
:4004C0000628080209080B050E240F02100C11011220176618801C0120042140220423842640272828A429822F0A30023150320435013728383439803A423D224A044B10F0
:400500005A205B805C105E80680869086B106D206E086F04780879087A207B0386048A02922093089780982099109E409F10A002A508A804AF01B741C0FFC2EFC4FECA3FEB
:40054000CCEFCEABD63CE080EC480401080209700D040F23137C14021B012148230329112B022F023002310F320137703F405206580459045B045C015D105F010010031066
:40058000062007AA09080E2A0F08141015011682170418101B011DB01E201F082102230124042540270229212B022C102E802F48310232283308360137A839A03D803E0218
:4005C0003F084020421045A047824E184F80540265046A186C846D246E406F20754076017E047F0491A1940895049670970899259A229B0C9D409E41A225A302A480A510C1
:40060000A720B202C0F6C2E4C4B0CAFDCCF5CEDCD0B0D230D840007F0280030104C0058006080760081F09700A200B850CC00DB60E010F4010901108124016601880193037
:400640001BC31CC01E022108229F24C026042EFF310733E0350836FF371039203B083E403F4054095604580459045B045F0180088234840486088C088E2090349203940824
:40068000961098379E01A037A437AC37B002B201B402B63CBA80BE15C014C102C260C405C5DEC6F0C7BCC83BC9FFCAFFCBFFCC22CEF0CF08D004D440D804DA04DB04DF01D7
:4006C000E2C0E440E501E610E711E8C0E901EB11EC40ED01EE40EF01004403800408056109100A400B110C800E600F081080110412011586181019121B801F40254D261089
:400700002F40310C352037023C403D0A3F10404441404401454049184A024B015101521453025C205D0A5F806010621063016461660484408D018E10904491A1931094082C
:400740009650970899219A229B8E9D409E45A225A304A480A510A610A722C0FDC2FFC4BDCA80CCA0CEF0D00DD20CD6F0D89EE240006C014903260464060807060808093098
:400780000A100CC00D060E2F102C124015471718187119021A821B041C911D061E4E2111234E24A425042640284029022A2C2C6C2D06303132C0330F340F3570370F39A8FD
:4007C0003A0B580459045F0180FF810883218401850186C088028AC08C808D018E4091229308964099049A3F9D019EBFA008A101A2C0A4C0A501A620A810A907AAC0AB18BC
:40080000AC04AD10AEC0AF40B108B540B6FFB73FB980BF41D602D724D804D904DB04DC01DD10DF010040010202040320066007090A480B010E120F0411241201150116025E
:400840001714184419211A081B041E02215023112620278229412A042B042C802D222F2230803204332035413610380839203A803B013D043EC03F09670C6D816E086F1549
:400880007622770885108940C0FFC2EBC4F7CAFFCCBECEDFD820E002E62007030F0317061B04350637013F40540159045B045C105D105F010412058007100E6A0F081010C7
:4008C00012101585160117201C101DA81E8A200822502402255026082E612F2030083210346036013704384039083DA43E0A442045A847024C81560158105A8064406D4160
:400900006E216F767580762A7720831088808B108E0890409108924095C0971098409A109B029D809E089F70A008A404A650A716AF4CB508C0F0C2F0C4F0CAF0CCF6CEFA0E
:40094000D0F0D210D60CD880E004E6C0EA180008010202C003C0040105FF06C008020AC00B400C040D100EC00FC0118012BF134014C01620173F1CFF1DC01F202104223FF5
:4009800023C0264027BF281029012AC02BC02C802D082E402FC030FF35FF52065401580459045B045C115D105F0181048301841F851086208708880289418A018B068C04BB
:4009C0008D078E01910F920793109607972098279A189B3F9C079D409E18A307A580A60FA801A902AA06AB01AC07AF07B030B33FB40FB540B608B780B908D804D904DC11A0
:400A0000DF01002402010308058006080760080109050A0A0E621110122013C0144015401714184419401A021E402180221C2520262028112B482C012E222F2031A03209F8
:400A4000332036043781380439103A233B403C083D203E013F805E805F106C086D206E0878107A04840888D089108A018B808E1091089340944495A0978898409A319B07DD
:400A80009C989D409F08A010A105A201A340A440A508A608A796AA22AE04C0F7C2BFC4F7CAFFCCDFCEFFD630E240E608EA05EC08D602D724DB04DD10DF010445060807019D
:400AC0000E2A16A217121C441D221F482408268C2C802E242F01369837013C013D203E88453247084E084F405501574060086710680469556C806E266F52700871487305DA
:400B0000762877027C807D408540880289148A028B049001931A95019604978198089B089C829D819E289F42A404A509A612A74AA850AA04AB40AD40B440B604B701C0F09F
:400B4000C2E0C4F0CAF0CCF0CEF0D0E0D230D844E2A0E62081019D01AD01AF48B180B202B304B40CEA10EE1039083E8443208F20CEE0D01038013D484320560487208A0429
:400B80008D40950896049A049D209E80B520B604CEE0D010D440E6105280544080208440940195089D209E80A504D460E240E42095089B109C209D20A504A801AB10AE80BB
:400BC000B280EAA0EE1086100701522056105F808E209A10C001D406D604E0089F80B301EE049308AF04B780EC08052256205B108E0495089B109C209D209F02A904AB029D
:400C0000C0A0D4C0EA20EC8000040702098014205A805E088004818089048E20928095089C209E209F02A204AD02B640C090C240C420D480D680E020E480EC100C046708AC
:400C40009308C204D801B004EE01000308020A020C030E0310021A021C020055011510AA11AA000000000007008000000240010004100108070F18101F00200700070700B9
:400C80000000073F27001820010206010741000600040F0108400F3F30800000000800000000000036040200050E0C0005FFFFFF0220000504000600000000000404040437
:400CC00011110001000040014001500140017010401000000000000000000000000000000000000000000F00810206C002FF01002F0440C0801000C00700004000C00720E2
:400D0000000007BF070828C01000003F470128C00480014010FF0F006000800000000000000000006204030005CE0E0007FFFFFF0220000504000000000002280404040401
:400D4000111100010000400140015001400170104010000000000000000000000000000000000000071000080000402007021801020001071F00203F01010606270F1810D7
:400D80000007070000004007000007000404010100000F000F000800303F400000200000000040004603020005C0000E12FFFFFF022000050400000001000000040404042F
:400DC000111100010000400140015001400170104010000000000000000000000000000000000000070418010100060702000100270018200000003F1F0220010041070689
:400E0000000F0F100040070007070000001000080400010700000F003040083F008000000000000064010200050E00C021FFFFFF0220000504000000000002280404040408
:400E400011010001000040014001500140017010401000000000000000000000000000000000000027041801000207011F40200004000120000F0F100707000000104008F5
:400E8000078018000000070702000107014106060000403F40000F403080083F00800000000001003501020004E000C022FFFFFF02200005040000000000022C0404040443
:400EC00011110001000040014001500140017010401000000000000000000000000000000000000000000F3F1F0220010210010807041801000F0010070000202707180090
:400F000000400700040001070100060700410706408000000800303F0F40408000080000000000002604050003000EC024FFFFFF022000050400000000000228040404042E
:400F40001111000100004001400150014001701040100000000000000000000000000000000000000200000202000200000000000C00020C0C000C00000C0000000800001C
:400F80000000000005000A0505000500000000001000201B1B00100000000000080707000700000022004922220022000000000000010000000200000003000000040000A5
:400FC00000050000000600000000000000000000000000000000000000000000000000000000000000000000000000000000000000000000000000000000000000000000E6
:4010000000000000000000000000000000000000000000000000000000000000000000000000000000000000000000000000000000000000000000000000000000000000B0
:401040000000000000000000000000000000000000000000000000000000000000000000000000000000000000000000000000000000000000000000000000000000000070
:401080000000000000000000000000000000000000000000000000000000000000000000000000000000000000000000000000000000000000000000000000000000000030
:4010C00000000000000000000000000000000000000000000000000000000000000000000000000000000000000000000000000000000000000000000000000000000000F0
:0200000490006A
:0400000000004005B7
:0200000490105A
:04000000BC90ACAF55
:0200000490303A
:020000005E8C14
:0200000490402A
:4000000000000000000000000000000000000000000000000000000000000000000000000000000000000000000000000000000000000000000000000000000000000000C0
:400040000000000000000000000000000000000000000000000000000000000000000000000000000000000000000000000000000000000000000000000000000000000080
:400080000000000000000000000000000000000000000000000000000000000000000000000000000000000000000000000000000000000000000000000000000000000040
:4000C0000000000000000000000000000000000000000000000000000000000000000000000000000000000000000000000000000000000000000000000000000000000000
:0200000490501A
:0C00000000012E16106900012E236EF581
:00000001FF