:400000000080002011000000390800003908000008B5044B1A6803F53F5302331A6000F013FC00BFFA46004010B5054C237833B9044B13B10448AFF300800123237010BDE6
:400040004081FF1F00000000C0140000084B10B51BB108490848AFF300800848036803B910BD074B002BFBD0BDE81040184700BF000000004481FF1FC0140000C880FF1F6A
:4000800000000000034A13889BB201339BB21380704700BF5C81FF1F034A53889BB201339BB25380704700BF5C81FF1F034A93889BB201339BB29380704700BF5C81FF1F92
:4000C000034AD3889BB201339BB2D380704700BF5C81FF1F034A13899BB201339BB21381704700BF5C81FF1F034A53899BB201339BB25381704700BF5C81FF1F034A938965
:400100009BB201339BB29381704700BF5C81FF1F034AD3899BB201339BB2D381704700BF5C81FF1F2DE9F84F41F6FF734FF480420121084600F0FCFD9E4B187041F6FF73B2
:400140004FF480420121084600F0A2FE9A4B187041F6FF734FF480420121084600F088FD964B187041F6FF734FF480420121084600F0EEFE924B187041F6FF734FF4804204
:400180000121084600F0F4FF8E4B187041F6FF734FF480420121084600F062FF8A4B187041F6FF734FF480420121084601F068F8864B187041F6FF734FF4804201210846D9
:4001C00001F0E6F8824B187000F02AFCDFF834B28BF8000000F024FCDFF82CA28AF8000000F01EFCDFF8249289F8000000F018FCDFF81C8288F8000000F012FC754F3870D3
:4002000000F00EFC744E307000F00AFC734D287000F006FC724C20709BF80000062302464FF4806100F016FC9AF80000062302464FF4806100F00EFC99F800000623024687
:400240004FF4806100F006FC98F80000062302464FF4806100F0FEFB3878062302464FF4806100F0F7FB3078062302464FF4806100F0F0FB2878062302464FF4806100F0F6
:40028000E9FB2078062302464FF4806100F0E2FB544A92B246F24B419BF8000000F0EEFB514A92B246F242419AF8000000F0E6FB4E4A92B246F2404199F8000000F0DEFB62
:4002C0004B4A92B246F2475198F8000000F0D6FB484A92B246F24451387800F0CFFB464A92B246F24B51307800F0C8FB434A92B246F24441287800F0C1FB414A92B246F213
:400300004641207800F0BAFB9BF80010294B187800F058FB9AF80010274B187800F052FB99F80010254B187800F04CFB98F80010234B187800F046FB3978224B187800F0E9
:4003400041FB3178204B187800F03CFB29781F4B187800F037FB21781D4B187800F032FB0121144B187800F0E5FA0121124B187800F0E0FA0121114B187800F0DBFA01215D
:400380000F4B187800F0D6FA01210E4B187800F0D1FA01210C4B187800F0CCFA01210B4B187800F0C7FA0121094B187800F0C2FABDE8F88F8495FF1F089AFF1F7881FF1F69
:4003C0008191FF1F0D9EFF1F099AFF1F0C9EFF1F24A8FF1F7E89FF1F7F89FF1F0A9AFF1F20A6FF1F7C85FF1F808DFF1F209EFF1F20A2FF1F8089FF1F7C81FF1F8895FF1F1D
:400400000C9AFF1F7D89FF1F7C89FF1F8091FF1F21A6FF1F08B562B6FFF784FE00F0C6FC00F0DCFB00F062FC00F070FD00F07EFE00F0F4FD00F002FF00F088FF00F0C4FCC7
:4004400000F0DAFB00F060FC00F06EFD00F07CFE00F0F2FD00F000FF00F086FF00F090FB00F04AFB00F05AFB0C4800F0DBFC0C4800F000FD0B4800F0EDFB0B4800F0A0FD07
:400480000A4800F0ADFE0A4800F022FE094800F02FFF094800F0B4FF08BD00BF8500000099000000AD000000C1000000D5000000E9000000FD0000001101000070B562B670
:4004C000FFF7A8FF154B1B889BB2002BFAD0134B9B889BB2002BF5D000F00EFB00240FE00F4E305D00F0FCFA651C705D00F0F8FA0C4E305D00F0F4FA705D00F0F1FA0434AB
:40050000B4F5806FECDB054B00221A805A809A80DA801A815A819A81DA81D3E75C81FF1F7C85FF1F209EFF1FFEE700BFF0B40022174611E050F82760F3B226F0FF0608E037
:4005400001EB420511F812406D78A5550132013BDBB2002BF4D10137262FEBD9F0BC7047064B1B78DBB203F00701054A11701B09013213704422034B1A707047CF0100494A
:400580006E5800407658004008B50A46002100F08EFF08BD38B50122264B1A801823264A1370032102321180023213700622234B1A705222A3F580731A70214B1B78DBB299
:4005C000204A13704FF4E1621F4B1A8041F25122023B1A80002419250CE01C4B1B7803F0010343EA440404F003044FF4F07000F017FF013D0DB1032CEFD115B90320FFF7DD
:4006000093FF134A4FF48073138007231370002310490B7048200231087013700532137002220D4B1A700D4A137843F00303137038BD00BF80400040824000400043004031
:400640000F010049A14600402242004025420040044000400640004001400040A243004008B500F019FF08BD38B572B64E4A137843F00403137000240CE04C4D6300191942
:400680004A0011462A44084691882858FFF77CFF0134E4B20C2CF0D900240CE04348A20011194B000344B3F85820596D186DFFF7D7FF0134E4B2082CF0D93D494FF0904077
:4006C000FFF734FF04213B48FFF75EFF04223A493A48FFF7C5FF042239493A48FFF7C0FF042239493948FFF7BBFF042238493948FFF7B6FF042238493848FFF7B1FF042273
:4007000037493848FFF7ACFF042237493748FFF7A7FF374A137843F0020313701032137843F002031370334C237843F040032370A2F58632513A137843F0100313700A228B
:400740002D492E48FFF78CFF0A222D492D48FFF787FF0A222C492D48FFF782FF0A222C492C48FFF77DFF08222B492C48FFF778FF0A222B492B48FFF773FF2B4A137843F038
:4007800008031370294D61232B70FFF703FF81232B700122264B1A70FFF7E2FE0E2221462448FFF75DFF38BDE8460040C41400009C00004800760040B40F004808760040F8
:4007C000B80F004810760040BC0F004818760040C00F004820760040C40F004828760040C80F004830760040CC0F00483876004003500140A0430040700F00480051004038
:400800007C0F0048C0510040880F0048F0510040940F004810510040A00F004822510040A80F004830510040224300400048004004000840B043004008B500F001FE03687B
:400840000C2B00D1FEE7FEE708B5104E104D16E029686B68AC68002204E051F8040B43F8040B0432A242F8D1E868002203E0002143F8041B04328242F9D11035013E002EEF
:40088000E6D100F0E3FDFFF719FEFEE7010000009415000008B5114A114B1A60114A136843F40073136000230AE0032B03D80E4A52F8231000E00D490D4A42F8231001331B
:4008C0002F2BF2D90B4B1A780B4B1A70084A0B4B1A60FFF7C9FE00F013F808BD0004FA050CED00E014ED00E000000000390800000080FF1FBC760040C080FF1F08ED00E02B
:400900000B4A7F2313708021517007E0DA0002F1804202F5F042013BDBB21370002BF5D1DB0003F1804303F5F04300221A707047CC80FF1F172815D831B103010A495A5C5A
:4009400042F020025A5405E0030107495A5C02F0DF025A540001044A835C43F00103835400207047012070471070004017280BD80001064A835C03F0F103490001F00E01D8
:400980001943815400207047012070471070004041F6FF73994201D14FF4005141F6FF739A4201D14FF40052172808D8C00000F1804000F5EC408180C280002070470120D5
:4009C000704700BF172805D8034B03EB0010417200207047012070471070004017281BD810B4C00000F1804404F5EC44D201D2B201F07F01114321709DF804201201D2B266
:400A000003F00F03134363709DF8083003F00F03A3700020E07001E00120704710BC704710B500F005FD0A4B5B78182B0BD9084A1478013B5370E30003F1804303F5F0434F
:400A40001B78137000E0FF2400F0F6FC204610BDCC80FF1F10F0800F0CD111F4704F0BD1C00000F1804000F5F04001808270C37000207047012070470120704710F0800F80
:400A800008D1C00000F1804000F5F0408180C280002070470120704708B500F0C9FC094A137843F020031370013A137843F010031370FF3A137843F01003137000F0BCFCE8
:400AC00008BD00BF99650040014B1878704700BF68650040014B1878704700BF69640040034B1B7813F0040FFAD0024B18707047686500404965004008B500F099FC064B9B
:400B00001A7842F001021A701A7802F0FE021A7000F092FC08BD00BF9965004008B501E00A4B1B780A4B1B7813F0200FF8D100F07FFC084B1A7842F001021A701A7802F01A
:400B4000FE021A7000F078FC08BD00BF59650040696400409965004008B50F22064B1A70FFF7DCFFFFF7B0FFFFF7B4FF0023034A1370FF3A137008BD896500408865004003
:400B800008B5054B1B7823B9FFF7E6FF0122024B1A70FFF781FF08BD6F81FF1F08B500F047FC064A137843F02003137000F044FC034A137843F00403137008BD9264004037
:400BC00075640040044B1A7802F0F8021A701A78D2B21A70704700BF8564004008B5054B1B7823B9FFF7EEFF0122024B1A70FFF7D5FF08BD7081FF1F08B500F019FC064A3D
:400C0000137843F01003137000F016FC034A137843F00203137008BD9564004075640040014B1B689865704708ED00E04001C0B2014B1870704700BF06E400E04022014BE7
:400C40001A60704700E100E04022014B1A60704780E100E010B50446FFF7F6FF2046FFF7DFFF0720FFF7E2FFFFF7E8FF10BD00BFF0B583B016461F460B4C062525700023F4
:400C8000019300932B460A4601462846FFF7A6FE3A4631462078FFF77BFE02212078FFF765FE207803B0F0BDD480FF1F08B500F0BFFB064A137843F02003137000F0BCFBBF
:400CC000034A137843F00403137008BD9164004070640040044B1A7802F0F8021A701A78D2B21A70704700BF8064004008B5054B1B7823B9FFF7EEFF0122024B1A70FFF771
:400D0000D5FF08BD7181FF1F08B500F091FB064A137843F01003137000F08EFB034A137843F00203137008BD9064004070640040F0B583B016461F460B4C03252570002344
:400D4000019300932B460A4601462846FFF746FE3A4631462078FFF71BFE02212078FFF705FE207803B0F0BDD580FF1F08B500F05FFB064A137843F02003137000F05CFBDD
:400D8000034A137843F00403137008BD9B6400407A650040044B1A7802F0F8021A701A78D2B21A70704700BF8A64004008B5054B1B7823B9FFF7EEFF0122024B1A70FFF791
:400DC000D5FF08BD7281FF1F08B500F031FB064A137843F01003137000F02EFB034A137843F00203137008BD9A6400407A650040014B1B68D864704708ED00E04001C0B2B4
:400E0000014B1870704700BF03E400E00822014B1A60704700E100E00822014B1A60704780E100E010B50446FFF7F6FF2046FFF7DFFF0720FFF7E2FFFFF7E8FF10BD00BFB6
:400E4000014B1B68D865704708ED00E04001C0B2014B1870704700BF07E400E08022014B1A60704700E100E08022014B1A60704780E100E010B50446FFF7F6FF2046FFF77C
:400E8000DFFF0720FFF7E2FFFFF7E8FF10BD00BFF0B583B016461F460B4C072525700023019300932B460A4601462846FFF796FD3A4631462078FFF76BFD02212078FFF755
:400EC00055FD207803B0F0BDD680FF1F08B500F0AFFA064A137843F02003137000F0ACFA034A137843F00403137008BD9665004077650040044B1A7802F0F8021A701A78FA
:400F0000D2B21A70704700BF8565004008B5054B1B7823B9FFF7EEFF0122024B1A70FFF7D5FF08BD7381FF1F08B500F081FA064A137843F01003137000F07EFA034A1378FD
:400F400043F00203137008BD9565004077650040F0B583B016461F460B4C022525700023019300932B460A4601462846FFF736FD3A4631462078FFF70BFD29462078FFF77C
:400F8000F5FC207803B0F0BDD780FF1F014B1B689864704708ED00E04001C0B2014B1870704700BF02E400E00422014B1A60704700E100E00422014B1A60704780E100E071
:400FC00010B50446FFF7F6FF2046FFF7DFFF0720FFF7E2FFFFF7E8FF10BD00BF08B500F027FA064A137843F02003137000F024FA034A137843F00403137008BD9864004030
:401000007B650040044B1A7802F0F8021A701A78D2B21A70704700BF8B65004008B5054B1B7823B9FFF7EEFF0122024B1A70FFF7D5FF08BD7481FF1F08B500F0F9F9064A09
:40104000137843F01003137000F0F6F9034A137843F00203137008BD9B6500407B650040F0B583B016461F460B4C052525700023019300932B460A4601462846FFF7AEFC76
:401080003A4631462078FFF783FC02212078FFF76DFC207803B0F0BDD880FF1F014B1B685865704708ED00E04001C0B2014B1870704700BF05E400E02022014B1A60704707
:4010C00000E100E02022014B1A60704780E100E010B50446FFF7F6FF2046FFF7DFFF0720FFF7E2FFFFF7E8FF10BD00BF08B500F09FF9064A137843F02003137000F09CF916
:40110000034A137843F00403137008BD9465004075650040044B1A7802F0F8021A701A78D2B21A70704700BF8A65004008B5054B1B7823B9FFF7EEFF0122024B1A70FFF717
:40114000D5FF08BD7581FF1F08B500F071F9064A137843F01003137000F06EF9034A137843F00203137008BD9A65004075650040F0B583B016461F460B4C01252570002331
:40118000019300932B460A4601462846FFF726FC3A4631462078FFF7FBFB02212078FFF7E5FB207803B0F0BDD980FF1F014B1B685864704708ED00E04001C0B2014B187061
:4011C000704700BF01E400E00222014B1A60704700E100E00222014B1A60704780E100E010B50446FFF7F6FF2046FFF7DFFF0720FFF7E2FFFFF7E8FF10BD00BF08B500F028
:4012000017F9064A137843F02003137000F014F9034A137843F00403137008BD9464004073640040044B1A7802F0F8021A701A78D2B21A70704700BF8765004008B5054B9E
:401240001B7823B9FFF7EEFF0122024B1A70FFF7D5FF08BD7681FF1F08B500F0E9F8064A137843F01003137000F0E6F8034A137843F00203137008BD9765004073640040D3
:40128000F0B583B016461F460B4C042525700023019300932B460A4601462846FFF79EFB3A4631462078FFF773FB02212078FFF75DFB207803B0F0BDDA80FF1F014B1B68F6
:4012C0001865704708ED00E04001C0B2014B1870704700BF04E400E01022014B1A60704700E100E01022014B1A60704780E100E010B50446FFF7F6FF2046FFF7DFFF072065
:40130000FFF7E2FFFFF7E8FF10BD00BF08B500F08FF8064A137843F02003137000F08CF8034A137843F00403137008BD976400407A640040044B1A7802F0F8021A701A7875
:40134000D2B21A70704700BF8664004008B5054B1B7823B9FFF7EEFF0122024B1A70FFF7D5FF08BD7781FF1F08B500F061F8064A137843F01003137000F05EF8034A1378F9
:4013800043F00203137008BD966400407A640040F0B583B016461F460B4D00242C700194009423460A4601462046FFF717FB3A4631462878FFF7ECFA02212878FFF7D6FA11
:4013C000287803B0F0BD00BFDB80FF1F014B1B681864704708ED00E04001C0B2014B1870704700BF00E400E00122014B1A60704700E100E00122014B1A60704780E100E0DB
:4014000010B50446FFF7F6FF2046FFF7DFFF0720FFF7E2FFFFF7E8FF10BD00BF000000000230800803D000BF01380046FCD17047EFF3108072B6704780F31088704700BFF0
:40144000014B1868704700BF3C81FF1F0E4B70B51E460E4C0025E41AA410A54204D056F8253098470135F8E700F082F8084B094C1E46E41AA4100025A54204D056F825303F
:4014800098470135F8E770BD7C1500007C1500007C1500008415000010B5431E0A44914204D011F8014B03F8014FF8E710BD03460244934202D003F8011BFAE77047000073
:4014C00000000000405100403000800001408001800201408001800401408001800601400004000B01400005801401400002001701408001001901408001001B014000011B
:4015000000400140000A004C01400002005001402000000000000140F00A0048800000020140700B0048800000040140F00B0048800000060140700C00488000800A0140F9
:40154000F00C0048800000140140700D0048800080160140F00D0048800080180140700E00488000801A0140F00E004880004300F8B500BFF8BC08BC9E4670474D000000A2
:4015800095080000F8B500BFF8BC08BC9E46704729000000A8150000C880FF1F78000000E826000000000000000000007F800000FF000000FFFFFFFFFFFFFFFF0000000047
:4015C000000000000000000000000000000000000000000000000000000000006E150000000000000000000000000000000000000000000000000000000000000000000068
:4016000000000000000000000000000000000000000000000000000000000000DC80FF1F000000000000000000000000000000000000000000000000000000000000000030
:40164000000000000000000000000000000000000000000000000000000000000000000000000000000000000000000000000000000000000000000000000000000000006A
:40168000000000000000000000000000000000000000000000000000000000000000000000000000000000000000000000000000000000000000000000000000000000002A
:4016C00000000000000000000000000000000000000000000000000000000000000000000000000000000000000000000000000000000000000000000000000000000000EA
:4017000000000000000000000000000000000000000000000000000000000000000000000000000000000000000000000000000000000000000000000000000000000000A9
:020000040003F7
:0200000480007A
:40000000085200400664004003650040220001404501014023020140400301401F0401405D0501402E060140530701405508014042090140180A01403E0B0140010D014083
:40004000020F0140301401405515014025160140531701401218014059190140191A0140521B014006400140114101400E42014008430140024401400745014007460140BE
:400080000447014015480140174901400B4C01400C4D01400750014004510140081010041101182019026004618C7804817F827F847F877F887F8B7F847F867F890F82BFBB
:4000C0008305840186C088108AC08C048EC090FF94C0962097039A3F9C089EC09F02A640A705A802AAC0AC80AE40B0FFB103B704BF40D602D724D804D904DB04DC11DD101C
:40010000DF010044024004200641071009950C080D020E061215154016081704184019201B281F022004210422012542278029082A412B0A2F20308832013310378438603D
:4001400039013A083D803E403F014044430849A04B0151105A405B205D085E045F0467046A046B046C1A6D6B6E02761D771080848180830889048C02C0FDC2FFC4E7CA4FC7
:40018000CC5FCE8FD007D20CD60CD820810883C085FF880889C08B208D808E038F4093BF9604974099109A039BC0A104A3C0A502A7C0A901AA06ABC0AF3FB001B1FFB206A1
:4001C000B408BE01D206D804D904DB04DC11DD10DF01002002010402051006220A240C100D020E221008150217181A601B101D1E1F522101220123402412268029402A267F
:400200002F5A3201331436813708380439513D083E223F40452A4B304C014F12540458085A08643068186A086D596E226F1976267708842485608C109D80AD10AF20C0F325
:40024000C2F6C472CAFFCCD7CEFFD0E0D230D840E210830387048B068C048E0897039A089B109E029F18A001A202A328A601AA04AB28B120B318B40CB506B603B701BF41D5
:40028000D206D401D804D904DB04DC11DD10DF010028010202100302070109080A010B840D200E021002110114101604170219401A041B021D201E02210C22202340244467
:4002C00026482710280429432B102F883118334235043603379039043A123B803C043D203F0241044204430244204504480249404A04511052015D205E8060086854694537
:400300006B406D286F0471107223730C81408380840486608E04926894049604980899249B019C209D809E019F04A008A311A520C08FC2CFC479CAAFCC7FCEEFD007D20CFD
:40034000D630D804E209E410E681810482BF83C084C08620881089018AC08BC08C088EC08F40900192C093BF94FF95FF99109A3F9BC09C049D809EC09F40A108A3C0A40215
:40038000A502A6C0A7C0A9C0AA40AB20AC80AE40AF3FB0FFB1FFD602D720D804D904DB04DC11DD10DF0100A801020408060A07800A290B800D220F1010081140130815022E
:4003C0001610171419031D221FA2220123802408255028402A582E222F22324933113440375539803A223D203E083F40442045124E024F20550157085C405D206240690253
:400400006A806B56722A73107B308020838085808940904091E0926993C09A409B089C109D819F02A05CA20AA604A788AD10AE20AF40C0FFC27FC477CAFFCCFFCE7DD0E09A
:40044000D230D630D808E208E620EE2002BF0501064007C008FF09C00B200C040DFF0EC0108011801240134014C016201740181019021AC01BC01C081EC01FBF2108223F54
:4004800023C02402251026C027C028012AC02B3F2D042FC036FF37FF56025728580459045B045C115D105F018104828083088401863288028A0D8B028C4D8E808F089010E5
:4004C0009260948D95019640970298729A089CCDA0CDA301A4CDA704AC12AE64B070B10CB20FB303B480BA0ABE10D440D804D904DB04DC10DF01000401420240030804099F
:40050000051006010AAA0C080E8A10201381150217181A801B181C011F4023502540268028A02D802E012F24320835203680370538023B503C883D206120624063206720E3
:400540006C096E8A76257718871089018B1092019404970899A09B019F84A044A110A208A320A548A602B212B301C0FFC2FFC47DCAF3CCF2CE7DD84EEE2004090602080778
:400580000B050F021402160C17031B052C0A2E053103320F370438083F4052065401580459045B045C105D105F01001405A00680071009080D020E291380162017201810FD
:4005C0001D321E201F0220C022402408250426842E092F06311033043684372238403A103DA03EA645264E124F1056505AA05E205F106708680869086D206E056F31740473
:4006000075A076087722800C85048A408C10A208C0F6C2F4C461CAF0CCF6CEFCD0E0D230D60CD820E680A2088E08E4C0810483018401850286068701882789078A188C0422
:400640008E018F3F910F920F9310941F9620972098029A019B079C079D409E18A207A307A407A580A941AA07AB06AD10AF08B20FB340B430B53FB608B780B920D206D40122
:40068000D804D904DB04DC11DD10DF010080010A0622070409200A220D080E020F441020112015021718198A1A081C0A1D281E02234024042688270429182A822C012E2199
:4006C0002F2030803104331036813714380839503B023E923F4440064108482550105C085D805E286008688069526A116B1A6C046D206E086F20711472227304801087024F
:40070000880389088A0C8E048F0192229D02A040A210AC02AD04AF04B220C0EDC2F7C476CAFFCCFECEFFD00ED20CD630D804E004E406E680EA2000FF040106C008100AC094
:400740000B040C040EC00F02110112BF130214C0162017081A3F1C081EC020802240264028022AC02B012D042F0830FF330C370356025728580459045B045C115D105F011E
:400780000024018004200582071009010A140B010C210E12100112141604170518041A021F02202021452260230125C02604280129082A112B022D402F04300231103240E9
:4007C00033083604370138A439023DA04084418448404A12581059085A48650868206A286B046C506D026E166F09759076157710781079A07A027C807E018A108D1091608C
:400800009240A604AC10B521C0F7C2FFC477CA3FCCCFCE3FD00FD208D60CD840E008E280E410E601EA100203030206060A0411011302160323013001310334063E015409B1
:40084000580459045B045C115F01000801600240040805100680084009080A820B040E201030138115801780180119201A401B081C401D102014210922042384250126024E
:4008800028502B022E013002310832503701380439803B013D0240054109490A4A085120524053025C015D085E405F1062206402682669406A22730183108520860188020C
:4008C0008B08928093C0940C9540962A97299A259B019C209D129F84A008A205A420A528A602AC80C07FC22FC40DCA8BCC8FCE8BD00FD204D6F0D814E402EE020105033AE4
:400900000523070C09090A020B3619021B0D1F102201240126023403350F37303B2052065401580459045B045C015D105F0101200511060307200C080E0A110412801501BF
:40094000162C19201D3B1E201F2222602550260827202C082D012F523260344036053720381439023D803E2A452A4E084F405680571059405B105C405F1063306A086B047E
:400980006C046D087D087E047F148280831084408504872089608C208D108E409054910293C0940897289A259C209E809F04A008A205A630A710AA08AF12C0F2C2E0C47CEB
:4009C000CAF0CCFCCEF7D0E0D230D63CE080E220EA0438043C103F024120CEE0D0103A083D803F044180531085808E4093049414A520A701AF04CEE0D010D420E640EA407A
:400A0000500454408004871089208C019280941497209E08A560A701D460E6C08840928094159E08A701AD40B040EA408A01E4010420518056085B409201C001D4078E08E4
:400A4000902092019E089F40A580E008902092019F40A5800502070453105440820887088B018F04928094059D209E08A040A701AD20B410C0A0D460E010E680EC400001DB
:400A800005200B0217085A805E01800483018A01928094059D209F08AD02B310C090C240C420D480D680E220E420EC100F405E0185809020920197409F40A580AF40C20430
:400AC000D601128079808D408E808F409F40A810C408DC01E008E202E408000308020A020C0310031A021C030055015510AA11AA00000F0727021801000000071F102008A6
:400B0000008007000007070007810006070018200004000101400600020F01100400013F0F400880303F000000200000000000004203060005C0E0000AFFFFFF022000051D
:400B400004000600010000000404040411110001000040014001500140017010401000000000000000000000000000000000000027041801010006071F4120060400013F37
:400B80000700180707020001400000000000072000400F000210010800070700000F0010080030400F00403F00800000000000006504030002C0000E12FFFFFF022000050F
:400BC00004000000000002280404040411110001000040014001500140017010401000000000000000000000000000000000000000040F0107000007000707001F412006FA
:400C0000011006082700182002020101040001070000073F0040000000800000070F18100F80003F304008000008000000000000430502000600E0C028FFFFFF0220000556
:400C400004000000000002240404040411110001000040014001500140017010401000000000000000000000000000000000000000000F002702180102000120044001007A
:400C80000700183F010706001F00200700000007000407010710000800410706000F0010080000000F3F3040002000000000000062040300050000EC30FFFFFF022000054F
:400CC00004000000010000000404040411110001000040014001500140017010401000000000000000000000000000000000000000100F0800000707020701000400013F55
:400D0000070418011F0020202741180600400700000000070702000101800600000F001008000F3F30400080000800000000000063040200050ECE000DFFFFFF02200005E3
:400D40000400000000000224040404041111000100004001400150014001701040100000000000000000000000000000000000000000023F0000084000C0002000801140F8
:400D800000000000000103C0001024C0000811C0000400C000FF240000020CC0000000BF03FF0C0020001000000000000000500032050600010CE00009FFFFFF0220000549
:400DC00004000000000002240404040411110001000040014001500140017010401000000000000000000000000000000000000000100000800760085000880704000107C8
:400E0000000F070007070000000207010F07500800040001012006000211010600003F0F0020000F3F10C00820000000000000003205040001CE000003FFFFFF02200005EB
:400E4000040006000100000004040404111100010000400140015001400170104010000000000000000000000000000000000000601A0000803304440100000004C180385D
:400E800004180002569C09030702381884180000841A000084180002000000000A821000080F02E07F1380002000000A000045004302100006DEFBC02FFFFFFF2200F00895
:400EC000040000000000022404040404000000010000C00040011011C0010011400140010000000000000000000000000000000007041801270218011F4120060440010010
:400F00000000000707000007000007200010070800000F3F0180060002070100000F00100800303F0F4000800008000000000000260403000500EC000CFFFFFF02200005BC
:400F40000400060001000000040404041111000100004001400150014001701040100000000000000000000000000000000000000200000202000200000000008C00428CED
:400F80008C008C000000000005000A0505000500000000001000201B1B00100000000000080707000700000022004922220022000000000000010000000200000003000091
:400FC00000040000000500000006000000070000000000000000000000000000000000000000000000000000000000000000000000000000000000000000000000000000DB
:4010000000000000000000000000000000000000000000000000000000000000000000000000000000000000000000000000000000000000000000000000000000000000B0
:401040000000000000000000000000000000000000000000000000000000000000000000000000000000000000000000000000000000000000000000000000000000000070
:401080000000000000000000000000000000000000000000000000000000000000000000000000000000000000000000000000000000000000000000000000000000000030
:4010C00000000000000000000000000000000000000000000000000000000000000000000000000000000000000000000000000000000000000000000000000000000000F0
:0200000490006A
:0400000000004005B7
:0200000490105A
:04000000BC90ACAF55
:0200000490303A
:020000003CE5DD
:0200000490402A
:4000000000000000000000000000000000000000000000000000000000000000000000000000000000000000000000000000000000000000000000000000000000000000C0
:400040000000000000000000000000000000000000000000000000000000000000000000000000000000000000000000000000000000000000000000000000000000000080
:400080000000000000000000000000000000000000000000000000000000000000000000000000000000000000000000000000000000000000000000000000000000000040
:4000C0000000000000000000000000000000000000000000000000000000000000000000000000000000000000000000000000000000000000000000000000000000000000
:0200000490501A
:0C00000000012E16106900012E224D4E4A
:00000001FF