:4000000000800020110000009D0B00009D0B000008B5044B1A6803F53F5302331A6000F0C5FD00BFFA46004010B5054C237833B9044B13B10448AFF300800123237010BD65
:400040005881FF1F0000000060170000084B10B51BB108490848AFF300800848036803B910BD074B002BFBD0BDE81040184700BF000000005C81FF1F60170000C880FF1FF4
:400080000000000008B50A4A13780133DBB21370084B1978084A4FF43E7301FB032292B246F24A41054B187800F0AAFE08BD00BF7481FF1FCC80FF1F8487FF1F758DFF1F4C
:4000C00008B50A4A53780133DBB25370084B1978084A4FF43E7301FB032292B246F24451054B187800F08CFE08BD00BF7481FF1FCC80FF1F6C93FF1F748DFF1F08B50A4A9C
:4001000093780133DBB29370084B1978084A4FF43E7301FB032292B246F24941054B187800F06EFE08BD00BF7481FF1FCC80FF1F00AFFF1F5C99FF1F08B50A4AD3780133F2
:40014000DBB2D370084B1978084A4FF43E7301FB032292B246F24551054B187800F050FE08BD00BF7481FF1FCC80FF1FF4B4FF1FE4BAFF1F08B50A4A13790133DBB21371CF
:40018000084B1978084A4FF43E7301FB032292B246F24751054B187800F032FE08BD00BF7481FF1FCC80FF1F7C8DFF1F768DFF1F08B50A4A53790133DBB25371084B197851
:4001C000084A4FF43E7301FB032292B246F24951054B187800F014FE08BD00BF7481FF1FCC80FF1F9481FF1F778DFF1F08B50A4A93790133DBB29371084B1978084A4FF4EF
:400200003E7301FB032292B246F24341054B187800F0F6FD08BD00BF7481FF1FCC80FF1F6099FF1FEAAEFF1F10B4002308E00C7804704C7844708C78847004310433033085
:400240009342F4DB10BC7047F8B51E4F4FF480433A0C0121084601F015FA1B4C207000F0A1FD1A4D287000F09DFD194E307046F24C42B9B2287800F0C3FD46F28A42154989
:4002800089B2307800F0BCFD0123327840F69671287800F0A1FD00232A780121307800F09BFD0421207800F04BFD0121207800F0F3FC2978207800F037FD0121207800F0CD
:4002C000EBFCF8BD509FFF1F788DFF1FF0B4FF1FE9AEFF1FEBAEFF1F2DE9F84F41F6FF734FF480420121084600F0DEFEDFF86CB28BF8000041F6FF734FF480420121084627
:4003000000F082FF844B187041F6FF734FF480420121084600F068FE804B187041F6FF734FF480420121084600F0CEFF7C4B187041F6FF734FF480420121084601F0D4F829
:40034000784B187041F6FF734FF480420121084601F042F8744B187041F6FF734FF480420121084601F048F9704B187000F01AFDDFF8ECA18AF8000000F014FDDFF8E491D5
:4003800089F8000000F00EFDDFF8DC8188F8000000F008FD664F387000F004FD654E307000F000FD644D287000F0FCFC634C20709AF80000062302464FF43E7100F00CFD2C
:4003C00099F80000062302464FF43E7100F004FD98F80000062302464FF43E7100F0FCFC3878062302464FF43E7100F0F5FC3078062302464FF43E7100F0EEFC287806239B
:4004000002464FF43E7100F0E7FC2078062302464FF43E7100F0E0FC494A92B246F24A419AF8000000F0ECFC464A92B246F2445199F8000000F0E4FC434A92B246F249414F
:4004400098F8000000F0DCFC404A92B246F24551387800F0D5FC3E4A92B246F24751307800F0CEFC3B4A92B246F24951287800F0C7FC394A92B246F24341207800F0C0FC64
:400480009AF800109BF8000000F04EFC99F80010214B187800F048FC98F800101F4B187800F042FC39781E4B187800F03DFC31781C4B187800F038FC29781B4B187800F016
:4004C00033FC2178194B187800F02EFC01219BF8000000F0E1FB01210F4B187800F0DCFB01210E4B187800F0D7FB01210C4B187800F0D2FB01210B4B187800F0CDFB01215D
:40050000094B187800F0C8FB0121084B187800F0C3FBBDE8F88F00BFE7AEFF1F9081FF1F5D99FF1FEDAEFF1FE8AEFF1FECAEFF1FE4BAFF1F768DFF1F778DFF1FEAAEFF1FB6
:400540008487FF1F6C93FF1F00AFFF1FF4B4FF1F7C8DFF1F9481FF1F6099FF1F5E99FF1F758DFF1F748DFF1F5C99FF1F08B562B6FFF7B2FE00F0D6FD022000F04FFC00F03F
:40058000E9FC022000F04AFC00F06CFD022000F045FC00F077FE022000F040FC00F082FF022000F03BFC00F0F5FE022000F036FC01F000F8022000F031FC00F0C1FD0220C6
:4005C00000F02CFC00F0D4FC022000F027FC00F057FD022000F022FC00F062FE022000F01DFC00F06DFF022000F018FC00F0E0FE022000F013FC00F0EBFF022000F00EFC98
:4006000000F07AFC00F044FC1A4B1A7802F0FD021A701A78184B1A70FFF716FE022000F0FDFB164800F0BAFD022000F0F7FB144800F0DCFD022000F0F1FB124800F0C6FCE7
:40064000022000F0EBFB104800F076FE022000F0E5FB0E4800F080FF022000F0DFFB0C4800F0F2FE022000F0D9FB0A4800F0FCFF08BD00BF8A640040EBAEFF1F85000000DE
:40068000C1000000FD0000003901000075010000B1010000ED01000008B562B6FFF766FF6C4B1B7813F0FF0F15D06A4CE0794FF43E731A46684903FB00116848FFF7B4FD42
:4006C000237A0133DBB22372637AB3FA83F35B096372002323705F4B5B7813F0FF0F15D05C4CE0794FF43E731A465D4903FB00115C48FFF799FD237A0133DBB22372A37A5B
:40070000B3FA83F35B09A37200236370514B9B7813F0FF0F15D04F4CE0794FF43E731A46514903FB00115148FFF77EFD237A0133DBB22372E37AB3FA83F35B09E372002338
:40074000A370444BDB7813F0FF0F15D0414CE0794FF43E731A46464903FB00114548FFF763FD237A0133DBB22372237BB3FA83F35B0923730023E370364B1B7913F0FF0F89
:4007800015D0344CE0794FF43E731A463A4903FB00113A48FFF748FD237A0133DBB22372637BB3FA83F35B09637300232371294B5B7913F0FF0F15D0264CE0794FF43E73F6
:4007C0001A462F4903FB00112E48FFF72DFD237A0133DBB22372A37BB3FA83F35B09A373002363711B4B9B7913F0FF0F15D0194CE0794FF43E731A46234903FB001123486F
:40080000FFF712FD237A0133DBB22372E37BB3FA83F35B09E3730023A3710E4B1B7ADBB2062B7FF63DAF1A4A137843F002031370184B1A7812F0FF0F0CBF012200221A70F8
:40084000044AD379B3FA83F35B09D3710023137226E700BF7481FF1F8487FF1F509FFF1F6C93FF1F8AA1FF1F00AFFF1FC4A3FF1FF4B4FF1FFEA5FF1F7C8DFF1F38A8FF1FF2
:400880009481FF1F72AAFF1F6099FF1FACACFF1F8A640040CC80FF1FF0B40022174611E050F82760F3B226F0FF0608E001EB420511F812406D78A5550132013BDBB2002B87
:4008C000F4D10137262FEBD9F0BC7047064B1B78DBB203F00701054A11701B09013213704422034B1A707047CF0100496E5800407658004008B50A46002100F028FF08BD3D
:4009000038B50122234B1A801823234A1370082102321180023213700622204B1A700422A3F580731A701E4B1B78DBB21D4A137000241D4B1C804FF4716203F21E231A80F6
:4009400041F25122023B1A8019250CE0174B1B7803F0010343EA440404F003044FF4F07000F0AEFE013D0DB1032CEFD10E4B07221A7000220E490A704820023108701A70AE
:400980000222033B1A700B4A137843F00303137038BD00BF80400040824000400043004089010049A1460040044000402542004006400040A243004008B500F0BDFE08BD79
:4009C00038B572B6504A137843F00403137000240CE04E4D630019194A0011462A44084691882858FFF786FF0134E4B20B2CF0D900240CE04548A20011194B000344B3F8DE
:400A00005020D96C986CFFF7D7FF0134E4B2062CF0D93F494FF09040FFF73EFF04213D48FFF768FF04223C493C48FFF7C5FF04223B493C48FFF7C0FF04223B493B48FFF7AB
:400A4000BBFF04223A493B48FFF7B6FF04223A493A48FFF7B1FF042239493A48FFF7ACFF042239493948FFF7A7FF04213848FFF741FF384A137843F0020313701032137814
:400A800043F002031370344C237843F040032370A2F58632513A137843F0100313700A222E492F48FFF788FF0A222E492E48FFF783FF0A222D492E48FFF77EFF0A222D49D4
:400AC0002D48FFF779FF08222C492D48FFF774FF0A222C492C48FFF76FFF2C4A137843F0080313702A4D61232B70FFF709FFC1232B700122274B1A70FFF7E8FE0E222146B6
:400B00002548FFF759FF38BDE8460040641700009C00004800760040841100480876004088110048107600408C110048187600409011004820760040941100482876004003
:400B400098110048307600409C110048387600404076004003500140A043004040110048005100404C110048C051004058110048F051004064110048105100407011004895
:400B8000225100407811004830510040224300400048004004000840B043004008B500F09FFD03680C2B00D1FEE7FEE708B5104E104D16E029686B68AC68002204E051F889
:400BC000040B43F8040B0432A242F8D1E868002203E0002143F8041B04328242F9D11035013E002EE6D100F081FDFFF755FDFEE7010000001818000008B5114A114B1A6002
:400C0000114A136843F40073136000230AE0032B03D80E4A52F8231000E00D490D4A42F8231001332F2BF2D90B4B1A780B4B1A70084A0B4B1A60FFF7C3FE00F013F808BD22
:400C40000004FA050CED00E014ED00E0000000009D0B00000080FF1FBC760040C080FF1F08ED00E00B4A7F2313708021517007E0DA0002F1804202F5F042013BDBB2137005
:400C8000002BF5D1DB0003F1804303F5F04300221A707047D080FF1F172815D831B103010A495A5C42F020025A5405E0030107495A5C02F0DF025A540001044A835C43F0C7
:400CC0000103835400207047012070471070004017280BD80001064A835C03F0F103490001F00E011943815400207047012070471070004041F6FF73994201D14FF400519E
:400D000041F6FF739A4201D14FF40052172808D8C00000F1804000F5EC408180C280002070470120704700BF172805D8034B03EB00104172002070470120704710700040DB
:400D4000172809D8054B03EB0010037901F007011943017100207047012070471070004017281BD810B4C00000F1804404F5EC44D201D2B201F07F01114321709DF8042059
:400D80001201D2B203F00F03134363709DF8083003F00F03A3700020E07001E00120704710BC704710B500F093FC0A4B5B78182B0BD9084A1478013B5370E30003F18043D3
:400DC00003F5F0431B78137000E0FF2400F084FC204610BDD080FF1F10F0800F0CD111F4704F0BD1C00000F1804000F5F04001808270C370002070470120704701207047CF
:400E000010F0800F08D1C00000F1804000F5F0408180C280002070470120704710B5044605E0084B186800F04BFCA4F50044B4F5004FF6D8034B586800FB04F000F040FCF8
:400E400010BD00BFD880FF1F08B500F041FC094A137843F020031370033A137843F0100313700132137843F01003137000F034FC08BD00BF9D640040014B1878704700BF80
:400E80006A640040014B1878704700BF6B64004008B501E00A4B1B780A4B1B7813F0200FF8D100F015FC084B1A7842F001021A701A7802F0FE021A7000F00EFC08BD00BF29
:400EC0005C6400406B6400409C64004008B50F22074B1A70FFF7DCFFFFF7CEFFFFF7D2FF0222044B1A70002201331A7008BD00BF8D6400408A64004008B5054B1B7823B942
:400F0000FFF7E4FF0122024B1A70FFF79DFF08BD8681FF1F08B500F0DBFB064A137843F02003137000F0D8FB034A137843F00403137008BD9B65004078650040044B1A78D0
:400F400002F0F8021A701A78D2B21A70704700BF8765004008B5054B1B7823B9FFF7EEFF0122024B1A70FFF7D5FF08BD8781FF1F08B500F0ADFB064A137843F010031370B2
:400F800000F0AAFB034A137843F00203137008BD9765004078650040014B1B689865704708ED00E04001C0B2014B1870704700BF06E400E04022014B1A60704700E100E02C
:400FC0004022014B1A60704780E100E010B50446FFF7F6FF2046FFF7DFFF0720FFF7E2FFFFF7E8FF10BD00BFF0B583B016461F460B4C062525700023019300932B460A467B
:4010000001462846FFF7ACFE3A4631462078FFF771FE02212078FFF75BFE207803B0F0BDE880FF1F08B500F053FB064A137843F02003137000F050FB034A137843F00403E3
:40104000137008BD986400407F640040044B1A7802F0F8021A701A78D2B21A70704700BF8964004008B5054B1B7823B9FFF7EEFF0122024B1A70FFF7D5FF08BD8881FF1F20
:4010800008B500F025FB064A137843F01003137000F022FB034A137843F00203137008BD996400407F640040F0B583B016461F460B4C032525700023019300932B460A4642
:4010C00001462846FFF74CFE3A4631462078FFF711FE02212078FFF7FBFD207803B0F0BDE980FF1F08B500F0F3FA064A137843F02003137000F0F0FA034A137843F0040305
:40110000137008BD9C64004072640040044B1A7802F0F8021A701A78D2B21A70704700BF8E64004008B5054B1B7823B9FFF7EEFF0122024B1A70FFF7D5FF08BD8981FF1F62
:4011400008B500F0C5FA064A137843F01003137000F0C2FA034A137843F00203137008BD9E64004072640040014B1B68D864704708ED00E04001C0B2014B1870704700BF6F
:4011800003E400E00822014B1A60704700E100E00822014B1A60704780E100E010B50446FFF7F6FF2046FFF7DFFF0720FFF7E2FFFFF7E8FF10BD00BF014B1B68D8657047BA
:4011C00008ED00E04001C0B2014B1870704700BF07E400E08022014B1A60704700E100E08022014B1A60704780E100E010B50446FFF7F6FF2046FFF7DFFF0720FFF7E2FFE0
:40120000FFF7E8FF10BD00BFF0B583B016461F460B4C072525700023019300932B460A4601462846FFF79CFD3A4631462078FFF761FD02212078FFF74BFD207803B0F0BD71
:40124000EA80FF1F08B500F043FA064A137843F02003137000F040FA034A137843F00403137008BD9565004076650040044B1A7802F0F8021A701A78D2B21A70704700BF02
:401280008665004008B5054B1B7823B9FFF7EEFF0122024B1A70FFF7D5FF08BD8A81FF1F08B500F015FA064A137843F01003137000F012FA034A137843F00203137008BD3E
:4012C0009665004076650040F0B583B016461F460B4C022525700023019300932B460A4601462846FFF73CFD3A4631462078FFF701FD29462078FFF7EBFC207803B0F0BD9E
:40130000EB80FF1F014B1B689864704708ED00E04001C0B2014B1870704700BF02E400E00422014B1A60704700E100E00422014B1A60704780E100E010B50446FFF7F6FFC8
:401340002046FFF7DFFF0720FFF7E2FFFFF7E8FF10BD00BF08B500F0BBF9064A137843F02003137000F0B8F9034A137843F00403137008BD9A65004079650040044B1A787E
:4013800002F0F8021A701A78D2B21A70704700BF8965004008B5054B1B7823B9FFF7EEFF0122024B1A70FFF7D5FF08BD8B81FF1F08B500F08DF9064A137843F0100313708A
:4013C00000F08AF9034A137843F00203137008BD9965004079650040F0B583B016461F460B4C052525700023019300932B460A4601462846FFF7B4FC3A4631462078FFF72C
:4014000079FC02212078FFF763FC207803B0F0BDEC80FF1F014B1B685865704708ED00E04001C0B2014B1870704700BF05E400E02022014B1A60704700E100E02022014BB9
:401440001A60704780E100E010B50446FFF7F6FF2046FFF7DFFF0720FFF7E2FFFFF7E8FF10BD00BF08B500F033F9064A137843F02003137000F030F9034A137843F00403A7
:40148000137008BD9664004077640040044B1A7802F0F8021A701A78D2B21A70704700BF8764004008B5054B1B7823B9FFF7EEFF0122024B1A70FFF7D5FF08BD8C81FF1FE4
:4014C00008B500F005F9064A137843F01003137000F002F9034A137843F00203137008BD9764004077640040F0B583B016461F460B4C012525700023019300932B460A464E
:4015000001462846FFF72CFC3A4631462078FFF7F1FB02212078FFF7DBFB207803B0F0BDED80FF1F014B1B685864704708ED00E04001C0B2014B1870704700BF01E400E084
:401540000222014B1A60704700E100E00222014B1A60704780E100E010B50446FFF7F6FF2046FFF7DFFF0720FFF7E2FFFFF7E8FF10BD00BF08B500F0ABF8064A137843F02E
:401580002003137000F0A8F8034A137843F00403137008BD9364004074640040044B1A7802F0F8021A701A78D2B21A70704700BF8464004008B5054B1B7823B9FFF7EEFF58
:4015C0000122024B1A70FFF7D5FF08BD8D81FF1F08B500F07DF8064A137843F01003137000F07AF8034A137843F00203137008BD9464004074640040F0B583B016461F46CD
:401600000B4C042525700023019300932B460A4601462846FFF7A4FB3A4631462078FFF769FB02212078FFF753FB207803B0F0BDEE80FF1F014B1B681865704708ED00E0FC
:401640004001C0B2014B1870704700BF04E400E01022014B1A60704700E100E01022014B1A60704780E100E010B50446FFF7F6FF2046FFF7DFFF0720FFF7E2FFFFF7E8FF36
:4016800010BD00BFF0B583B016461F460B4C082525700023019300930A4601462846FFF75FFB3A4631462078FFF724FB02212078FFF70EFB207803B0F0BD00BFEF80FF1FAB
:4016C0000230800803D000BF01380046FCD17047EFF3108072B6704780F31088704700BF014B1868704700BF5081FF1F0E4B70B51E460E4C0025E41AA410A54204D056F87C
:40170000253098470135F8E700F074F8084B094C1E46E41AA4100025A54204D056F8253098470135F8E770BD0018000000180000001800000818000010B5431E0A449142F3
:4017400004D011F8014B03F8014FF8E710BD03460244934202D003F8011BFAE7704700000000000040510040300000000140800000010140800100030140800500090140CC
:401780000003800C0140800300140140800000150140800300190140000300400140000A004C0140000200500140200010510140380E0048060080000140400E00488000F3
:4017C00080020140C00E0048800080080140400F00488000000C0140C00F004880008014014040100048800080180140C010004880004300F8B500BFF8BC08BC9E467047AC
:401800004D000000F90B0000F8B500BFF8BC08BC9E4670472900000028180000C880FF1F900000009039000000000000010000007F800000FF0100000000C05D80BB000058
:4018400030000000006CDC02FFFFFFFFFFFFFFFF0000000000000000000000000000000000000000000000000000000000000000F2170000000000000000000000000000ED
:40188000000000000000000000000000000000000000000000000000000000000000000000000000000000000000000000000000F080FF1F0000000000000000000000009A
:4018C00000000000000000000000000000000000000000000000000000000000000000000000000000000000000000000000000000000000000000000000000000000000E8
:4019000000000000000000000000000000000000000000000000000000000000000000000000000000000000000000000000000000000000000000000000000000000000A7
:401940000000000000000000000000000000000000000000000000000000000000000000000000000000000000000000000000000000000000000000000000000000000067
:401980000000000000000000000000000000000000000000000000000000000000000000000000000000000000000000000000000000000000000000000000000000000027
:020000040003F7
:0200000480007A
:400000000A520040066400400365004014000140390101400D02014044030140440401404F05014048060140520701401D08014049090140640A0140560B01401F0C01402D
:40004000530D01405F0E0140380F0140251401405515014062160140591701401F18014048190140501A0140531B0140094001400E410140104201400E43014008450140D9
:40008000064601401348014017490140044C01400C4D014008500140025101400102091010061103180219226084618C78047901837F857F867F887F8C7F8D0F857F8A7FF6
:4000C0008B7F0307051007080B200F07173F19071D041F012501270629022B012D0F2F10353F392059045C105F01062A0710080809040C100D220E121408154017481C807A
:400100001D2A1E202008211024882680270829142B012D422E2831403214341036813708380439213A803C803D083E12452A4A044B204C044F4057525E405F1063306D20C3
:400140006E08810282048302C0E0C2F0C4E0CAFECCFECEFFD0E0D230D630E4400B060F031B031F04330137063F04520659045B045C105D105F010024010109800AA81395DC
:40018000184419801A801B05220425402688288029142A8031403224369039A53D203F8040444108480449824B1053086008681069A16A206B206D106F207154730582805D
:4001C0008324870889108D848F219080932094049501967897409D549E8A9F50A004A110A210A340A504A601A701C00EC20FC40FCA0FCC3ECE3FD007D20CD804E2080501CC
:4002000006020A030B200D100E050F2017061B041E051F10230A2F0A3004310133303403350637083E013F4052065401580459045B045C115D105F01810483C0851086030E
:4002400087C08B408DFF93BF9611973F99019A029BC09E08A108A204A3C0A502A7C0A9C0AA11AB20AC04AD80AE08AF40B1FFB210B403B60CBE04D602D728D804D904DB048D
:40028000DC11DD10DF010080032404080A020D800E28154116041A401B201C201D801E081F4020102108226023802602274029822D402E182F8030883220350836023710BF
:4002C000381039843DA83E02402043084BC058205A8065086720680C69046D486E126F80760A7710780879048C4090809180932295049610974099829A409B089C889E0AB3
:400300009FD0A150A308A50CA621AA48AB08AE40C027C2E1C4D0CAF9CCEECEFED60CD840E690EA08010403C00510060207C009C00B200D800F40133F174019021BC01FBFE5
:40034000210823C0240125FF260229012BC02E0131FF320356025724580459045B045C115D105F01827F84018510860688508A088B058C048D088E019207930294079A601A
:400380009C80A002A108A201A607A703AC0FAE50AF05B080B103B304B43FB510B640B708B820BF04D206D401D804D904DB04DC11DD10DF01010802010348050409010A1445
:4003C0000B0210021108130215801708180419411A041D041F042122220823012740282229012E202FA03102352036023744382039043A403D483E1258105A405D045F04B6
:40040000670469046B046D4A6E106F807528762377208090812083038430858088108A08924093029408950196029A409B089E049F04A010A204A320A440A610AC84B48060
:40044000C02FC20FC4ADCAEBCCF1CEFED60CD820E226E608EA01EC4000FF040206C00C800E4012BF1501163F18101AC01CC01E20200422C0240126C02A402C082EC030FF5D
:40048000330156025724580459045B045C115D105F0100AA0408078109010A140B010C140D020E080F011002121815101610174219141A901B401D022002214026082914FD
:4004C0002A013012310233403404380839803A143B0140404218442045084805491151085820598064046D226E0C6F417450761577028101851889808D108F0191109202DF
:40050000940498449C08A408A680AA02AE48C0BFC2FFC4F7CA07CC4DCE0FD007D20CD60CD820E480060309010B060F0F11041301151F17201B071E041F07210722032318B2
:400540002502270129072A062D272F1830013108330F353036063E01403541044206440245C0460E480649FF4AFF4BFF4C024D204F05500454095604580459045A045B044B
:400580005C115D015F01624063016440650166506701684069016A706B106C406D10813B8202867C880489448A238B108C118D428E028F04911A93219448953B9603993B68
:4005C0009A019C709D049F1AA13BA944AB08AF20B11EB20FB340B520B670B701BB02BE40BF54D440D804D904DB04DF0100040440052406800A020E0A0F10100812801A021F
:400600001B011D041F802018210122142340255026082782288029802A042B082C022D202E022F0130013204335037A938803A203C403D013F104098410145144618480410
:400640004982508059185A405B0262426618670278407B018780888090C0911192409310941096209740980599B89AA69B799D02A002A104A205A308A540AE20B120B6015C
:40068000C0F4C2E1C40ACABFCCFFCEBCD007D20CD60FD879E408E68082078607870488108A088E20900F92109401960698079B039F06A23FA303A802AA01AC04AE01B50637
:4006C000B63FB701B880BF40D602D728D804D904DB04DC11DF010010018403400440052409100A100B400E020F1010011102120419801D041E022004226024802501290239
:400700002D042E302F823210338034013620374638043D223E084020430445684D284E824F02540255045680572061046420684069616B296D246F5A7203762C770281104B
:40074000828087028B808C20904091109240931095619681980499209E829F28A108A206A440A721A801C0EFC2AEC40BCAF1CCFCCEE2D070D230D842E0C0E801016C0210DD
:40078000040205640708080909400A560B2C0C060D2C0F40100411711382146115C0160E172F19A41B401C062006216C2606280229912A042B4E2C072D082E382F10300868
:4007C000310F3331340F35C0367038203B2C3E015401580459045B045D105F018101829F8480850189228AFF8B088CC08D018E01901F9107922093189504966098C09901BD
:400800009A089D40A0C0A140A202A47FA510A680A780A8C0A908AA04AB21AC90AD01AE40B13FB380B540B6FFB922BE40BF01D206D804D904DB04DD10DF01000501600404B3
:400840000520068208010A010B100D100E200F40110112021328154916041720180119201A401F402044210C2212235426142744280129202A022B012D602F6031083212A3
:400880003602376439613A043C803E023F145A805B106D14780479048F10C0FFC27DC4FFCAFDCCF7CEFFD60CE4400A020C010E021E01320336034054410342024401450C5A
:4008C000460E480549FF4AFF4BFF4C024D204F05500458045A045C015D015F01624063016440650166506701684069016A706B106C406D10001001800440051007500880BD
:400900000A200B100C080E420F081404170618111C401D321E201F40251026032A202B042C282E402F403510360637403C803D023E204025410145234708480149044D10A7
:400940004E22508056045D105E20640467046C086E096F5274607620770680A08401858188808B108C048D019240930496219B089D059E249F16A408A510A630A702AE8432
:40098000AF04B540C0F3C2F1C470CAF0CCF0CEB0D0EFD238D820E208E6AEEA10EC10023F0301064008020AC00D010F0212BF130214C01620170818FF1C081EC0200422C020
:4009C000240126C028102AC02B042C802D042E402F0830FF350C370352065401580459045B045C115D105F01820F842786188704881F8A208B068C048E019207940797033C
:400A000098409C029E01A303A607A841AA06AC07AE18B040B101B20FB306B630BF01C032C105C201C404C5C0C6E0C80AC9FFCAFFCBFFCC02CD20CF05D004D401D804D904EE
:400A4000DA04DB04DC11DD11DF01E240E301E440E501E650E701E840E901EA70EB10EC40ED10000402010348040806800704088009210A100C080E491002110813201401A7
:400A80001620171218401A021B881E402104220823802709281029012B202C012F06310435203620370939183C023D403E043F04400443894842494053205A205B805DA098
:400AC0006C046E0480408510860888018D10900491409210940895809602988099C09A019B609C109E04A125A204A442A630A708A802AD01AE22AF04B102B304C07FC2FF4A
:400B0000C4F7CA31CCC2CE96D00FD208D63CE088E618EE01000802C0040106C008020AC00EBF11011302164018101AC01CFF1F02200422C024C026202A3F2C802E402F0119
:400B4000310336FF5206580459045B045C115D105F0100080220030205400620074808900A900B040E29110412491540171618041A101B061C021D40215022082440278087
:400B800028902B062D80310132643781388039253A41400442104302450446104A8A5004584059205F3068086A086B206D086E246F1086118D018E089202944498409B01BE
:400BC000A340A408A680AA48B008B380C0F5C2EFC4FFCA1FCC9FCE0FD007D20CD60CE880EC20000402C0030104C0062008100AC00D010F0212BF1302140116C01A3F1CFF04
:400C0000200822C0240226C02A402C802E4030FF310356025728580459045B045C115D105F01827F830F8401850286068701880289108A018C048D4F8E018F809307966093
:400C4000970799079A079D879E079F48A050A107A208A348A40FA520A650A807A911AB06AD04AF01B110B23FB3C0B440B520B70FB808D602D724D804D904DB04DC11DD1016
:400C8000DF010028024004010620070A09080A8A0E2A100A110113041420151017111A801E201F28220225562680270128202B202D822E24320235403605371038023980CF
:400CC0003C033DA03E0863106610681669856D506E0A6F4670447108730475807628770A810283208680870A89428A108C858D04920E931094809545968097049A509C80EF
:400D00009E209F4EA009A404A606A940B180B404B520B740C0FEC2EFC47FCAF0CCF1CEF9D822E660E801EA1039023C083F80412083408D20CEE0D010E2203A083F244201D3
:400D40005301830186409502A404A520CEE0D010D480E210E62047045140564089208D089502960197049A409E08A404A520AB10D080D460EE808140870489019420958243
:400D8000960197049E08A108A404AB04B410E2C0EA80058051025711A102A902C001D403D6048701A701B180B710E808EE010420050252025508830488408E02942096017E
:400DC0009E089F08A108AC04AF08C0A0D4C0E620E810EE4003400708084016805F20630883408A018B2096019C409E809F08A304AD02B688C090C240C420D620D840E480EF
:400E0000EC100C046101C204D802128077208E809B20AB20B004B501C408DE04E202EC02EE01000308020A020C030E0310021A021C02005501550000AAAA02000000000088
:400E4000000400010100060702070100040F011007001807070000201F1020080040070000800000270218010041070600000F3F084030000F3F0080002000000000000082
:400E8000260403000500ECE02CFFFFFF02200005040006000100000004040404111100010000400140015001400170104010000000000000000000000000000000000000C2
:400EC000000807C01F00203F00C007200080004007001800070000BF00FF0F00410406C004000140020101C0270218C0401000C0080040FF0F003000000000000000000060
:400F00002604050003C0000E12FFFFFF022000050400000000000224040404041111000100004001400150014001701040100000000000000000000000000000000000003A
:400F4000270718001F02200102010106040001200000073F07001800000007070700000700040001410F06104010000800000F00300008000F00403F008000000000000021
:400F80006503020004C0000E12FFFFFF02200005040000000100000004040404111100010000400140015001400170104010000000000000000000000000000000000000A3
:400FC000000000BF200218C01CC022200C003100000400C02900143F00FF0000030800C000000040001000C0000100C00080004000FF38000000070080000800000000007C
:401000006305100002CEBBDF3FFFFFFF2200F008040000000000022804040404101000010000C00040011011C00100114001400100000000000000000000000000000000A3
:40104000000F0710000007001F4120060704180100000F200700000701100608270018070440010002020101400700000000003F083F30000F40400000020000000000001E
:4010800025040600030E000C11FFFFFF022000050400000000000224040404041111000100004001400150014001701040100000000000000000000000000000000000006E
:4010C0000000000707000007004000001F04200100000F2007801800020701000100063F0441010600020701270F1810001007080F00083F30800040000800000000000018
:401100004603020005C0000E12FFFFFF0220000504000600010000000404040411110001000040014001500140017010401000000000000000000000000000000000000039
:401140000200000202000200000000008C00428C8C008C000000000005000A0505000500000000001000201B1B001000000000000807070007000000220049222200220073
:401180000000000000010000000200000003000000040000000500000006000000070000000000000000000000000000000000000000000000000000000000000000000013
:4011C00000000000000000000000000000000000000000000000000000000000000000000000000000000000000000000000000000000000000000000000000000000000EF
:4012000000000000000000000000000000000000000000000000000000000000000000000000000000000000000000000000000000000000000000000000000000000000AE
:40124000000000000000000000000000000000000000000000000000000000000000000000000000000000000000000000000000000000000000000000000000000000006E
:40128000000000000000000000000000000000000000000000000000000000000000000000000000000000000000000000000000000000000000000000000000000000002E
:0200000490006A
:0400000000004005B7
:0200000490105A
:04000000BC90ACAF55
:0200000490303A
:02000000246D6D
:0200000490402A
:4000000000000000000000000000000000000000000000000000000000000000000000000000000000000000000000000000000000000000000000000000000000000000C0
:400040000000000000000000000000000000000000000000000000000000000000000000000000000000000000000000000000000000000000000000000000000000000080
:400080000000000000000000000000000000000000000000000000000000000000000000000000000000000000000000000000000000000000000000000000000000000040
:4000C0000000000000000000000000000000000000000000000000000000000000000000000000000000000000000000000000000000000000000000000000000000000000
:0200000490501A
:0C00000000012E16106900012E2434D6D9
:00000001FF