:400000000080002011000000FD030000FD03000008B5044B1A6803F53F5302331A6000F00DFA00BFFA46004010B5054C237833B9044B13B10448AFF300800123237010BD70
:400040007081FF1F0000000028260000084B10B51BB108490848AFF300800848036803B910BD074B002BFBD0BDE81040184700BF000000007481FF1F28260000C880FF1F16
:4000800000000000034A13889BB201339BB21380704700BF8C81FF1F38B541F6FF734FF480420121084600F025FA0E4C207000F0CFFA02460C4D287006234FF4806100F023
:4000C000E1FA0A4A92B246F24441287800F0EEFA2978207800F08EFA0121207800F042FA38BD00BFA181FF1FB185FF1FA481FF1F08B562B60121002000F018FD00F04EFDDF
:400100000028FBD000F0C6FB00F0F2FB00F0FEFBFFF7C2FF014801F0D5FD08BD8500000038B562B6FFF7E4FF0C4B1B889BB2002BFAD00FE00A4D0B4B53F824200A49284642
:4001400001F04EFE284600F0EBFD0022034B1A80013400E00024FF2CECD9E5E78C81FF1FA485FF1FA481FF1F2C260000FEE700BFF0B40022174611E050F82760F3B226F0B4
:40018000FF0608E001EB420511F812406D78A5550132013BDBB2002BF4D10137172FEBD9F0BC7047114B1B78DBB203F00701104A11701B090132137004220E4B1A700822F5
:4001C000C0331A700C2203F29F631A7042F2010203F5CB731A80202206331A706022F8331A704422A3F28A231A707047CF0100496E5800400D51004008B50A46002101F0CB
:40020000E6FD08BD38B50322244B1A80182202331A70062203F27E231A705222A3F580731A701F4B1B78DBB21E4A13704FF4E1621D4B1A8041F25122023B1A800024192555
:400240000CE01A4B1B7803F0010343EA440404F003044FF4F07001F043FD013D0DB1032CEFD115B90320FFF781FF114A4FF4807313800723137000230E490B7048200231AC
:40028000087013700532137002220B4B1A700B4A137843F00103137038BD00BF804000400F010049A14600402242004025420040044000400640004001400040A2430040BC
:4002C00008B501F079FD08BD38B572B6384A137843F00403137000240CE0364D630019194A0011462A44084691882858FFF784FF0134E4B2062CF0D900240BE02D49A300B1
:400300001819420088188022016BC06AFFF7D8FF0134E4B2002CF1D027494FF09040FFF727FF04212548FFF767FF254A137843F0020313701032137843F002031370214CBA
:40034000237843F040032370A2F58632513A137843F01003137008221B491C48FFF7B0FF0A221B491B48FFF7ABFF05221A491B48FFF7A6FF0A221A491A48FFF7A1FF082248
:4003800019491A48FFF79CFF194A137843F008031370184D61232B70FFF734FF81232B70FFF700FF0E2221461348FFF789FF38BDE8460040342600006000004800760040CD
:4003C00003500140A04300403C0200480251004044020048C051004050020048CB51004058020048F051004064020048125100402243004000480040B043004008B501F0D6
:40040000AFFC03680C2B00D1FEE7FEE708B5094B1A681044084BC31A802B02DC054B186005E001F09DFC0C2303604FF0FF32104608BD00BFCC80FF1F9086FF1F08B5104E68
:40044000104D16E029686B68AC68002204E051F8040B43F8040B0432A242F8D1E868002203E0002143F8041B04328242F9D11035013E002EE6D101F079FCFFF751FEFEE799
:40048000010000005028000008B5114A114B1A60114A136843F40073136000230AE0032B03D80E4A52F8231000E00D490D4A42F8231001332F2BF2D90B4B1A780B4B1A70DC
:4004C000084A0B4B1A60FFF7FFFE00F031F808BD0004FA050CED00E014ED00E000000000FD0300000080FF1FBC760040C080FF1F08ED00E0F0B583B016461F460B4D0024F4
:400500002C700194009423460A460146204600F07DF83A463146287800F052F80221287800F03CF8287803B0F0BD00BFD080FF1F0B4A7F2313708021517007E0DA0002F1B6
:40054000804202F5F042013BDBB21370002BF5D1DB0003F1804303F5F04300221A707047D480FF1F172815D831B103010A495A5C42F020025A5405E0030107495A5C02F0C3
:40058000DF025A540001044A835C43F00103835400207047012070471070004017280BD80001064A835C03F0F103490001F00E0119438154002070470120704710700040DF
:4005C00041F6FF73994201D14FF4005141F6FF739A4201D14FF40052172808D8C00000F1804000F5EC408180C280002070470120704700BF172805D8034B03EB00104172A8
:4006000000207047012070471070004017281BD810B4C00000F1804404F5EC44D201D2B201F07F01114321709DF804201201D2B203F00F03134363709DF8083003F00F03BA
:40064000A3700020E07001E00120704710BC704710B501F04DFB0A4B5B78182B0BD9084A1478013B5370E30003F1804303F5F0431B78137000E0FF2401F03EFB204610BD56
:40068000D480FF1F10F0800F0CD111F4704F0BD1C00000F1804000F5F04001808270C37000207047012070470120704710F0800F08D1C00000F1804000F5F0408180C280B8
:4006C000002070470120704701BE704708B5034B1B7A00FB03F001F003FB08BDDC80FF1F70B504460E46074B1D681F2802D90020FFF7EAFF04F01F04103455F8240045F855
:40070000246070BD08ED00E038B504460D46072902D90020FFF7D8FF1F2C02D90020FFF7D3FF04F01F0000F1604000F564406D01EDB2057038BD00BF134B1B78DBB203604F
:40074000124A127843EA02230360114A127843EA024303600F4A127843EA026303600E4B1B78DBB243600D4A127843EA022343600B4A127843EA024343600A4A127843EA5B
:4007800002634360704700BF0301004904010049EC4600400201004901010049000100490501004906010049084A137843F0010313701032137843F00103137002F5A55222
:4007C0001E32137843F0800313707047A9430040044A137803F0FC0300F0030018431070704700BF0158004010B487B00446194B03AA1868596803C2197A11706A4653F8EF
:400800000C0F596803C21B7A1370082C1ED812490B7803F08003DBB20B70087806AB1C4414F80C3C14F8182C920002F00C02134303430B70094A137803F0F30313701178C8
:4008400014F8183C0B4343F00C03137007B010BC704700BF6C260000025800400158004008B50C22084B1A70084A137843F0200313700022064B1A700120FFF7B5FF0220DF
:40088000FFF7A6FF08BD00BF00580040015800400258004008B5054B1B7823B9FFF7E0FF0122024B1A70FFF77FFF08BD9081FF1F08B501F01DFA064A137843F02003137022
:4008C00001F01AFA034A137843F00403137008BD9464004075640040044B1A7802F0F8021A701A78D2B21A70704700BF8564004008B5054B1B7823B9FFF7EEFF0122024BE3
:400900001A70FFF7D5FF08BD9181FF1F08B501F0EFF9064A137843F01003137001F0ECF9034A137843F00203137008BD9564004075640040F8B501F0DBF90746404A1378E0
:4009400043F0010313701032137843F00103137001263C4B1E700225943B1D7002F5E2521B32137803F07F0313700020FFF7AEFE354C237803F0F9032370344A137803F020
:40098000DF0313702378334323703046FFF79EFE2820FFF79BFE2E4B1A7802F07F021A701A7802F0BF021A7023782B4323702846FFF78CFE237843F0040323700023254AF4
:4009C000137001321370384601F096F907211720FFF79AFE20491720FFF782FE07211820FFF792FE1D491820FFF77AFE07211520FFF78AFE1A491520FFF772FE0721304654
:400A0000FFF782FE17493046FFF76AFE07212846FFF77AFE14492846FFF762FE07210320FFF772FE11490320FFF75AFE07210C20FFF76AFE0E490C20FFF752FEF8BD00BF7C
:400A4000A54300409D6000409443004012600040F85100408460004029130000111100002513000085120000B5120000E91200003113000008B5214B18700023204A1370A7
:400A8000204A1370204A1370204A1370204A1370204A1370204A1370204B4FF400021A604FF080721A604FF400121A6002221A6004221A6008221A6011B1012906D00BE075
:400AC000174A137803F0FE0313700AE0144A137843F00103137004E0114A137843F00103137003220F4B1A708022203B1A70012001F0F6F804220C4B1A7008BDCD85FF1FB6
:400B0000D085FF1FEC85FF1FEF85FF1FE485FF1FEE85FF1FF185FF1FCC85FF1F00E100E009600040286000401260004038B504460D46064B1B7823B9FFF7FCFE0122034B77
:400B40001A7029462046FFF795FF38BD9281FF1F00230A4A13700A4A13700A4A13700A4A13700A4A13700A4A13700A4A13700322094B1A708022203B1A707047D085FF1FAE
:400B8000EC85FF1FEF85FF1FE485FF1FEE85FF1FF185FF1FCC85FF1F28600040014B1878704700BFEF85FF1F431EDBB2072B3CD8F0B4074600EB4004A3001C4C2344DB8824
:400BC0009BB2C3F500739A4208D900EB400293002344DA8892B2C2F5007292B200EB4004A300124C2344DB7843EA1223104D04012E192B55D3B2737039B909E0CE5C3D0166
:400C00000C4C665501339BB200E000239A42F5D8420002449300054A134400225A705A79D2B20001044B1A54F0BC7047F485FF1FFC5F004078600040FE5F00400246002000
:400C400001E0013080B2135C002BFAD1704700BF10B4FF2400230EE0094AD25C02EB42029100084A11448A7AD2B2824201D11C4602230133DBB2012BEED9204610BC704731
:400C8000BC85FF1FF485FF1F10B5204C2079FFF7DFFF237813F0800F0ED06378DBB2212B2FD11B4B07221A80C0EBC000194A1044586000F09BFA10BD144B5B78DBB2202B82
:400CC00002D0222B10D01EE0114A07231380C0EBC00310490B4453600F4A135C43F00103135400F0ABFA10BD084B9B780B4A22F81030094A135C43F00203135400F034F9BB
:400D000010BD002010BD002010BD00BF00600040D885FF1FEC80FF1FB485FF1FC885FF1F2DE9F8438046234B1B78234AD65CF6B2FFF784FF05460027344606EB4602930056
:400D40001E4A13441B899BB29D4209D906EB460293001A4A1344B3F808901FFA89F900E0A9464A4608EB07013046FFF71DFFC9EB0505ADB245B906EB460293000F4A134424
:400D80001B899BB2994510D14F44BFB204EB440293000A4A13445B7813F0FF0FF6D025B9002211463046FFF7FFFE002DC4D1BDE8F88300BF9381FF1FB885FF1FF485FF1FDD
:400DC000C37803F0030390F9020000280FDA032B06D002F001030B48C15442F001020EE0C2F380030848C15442F0040207E0032B05D0C2F340030548C15442F002021046F9
:400E0000704700BFB885FF1FBC85FF1FC085FF1F1D4B19781D4A13889BB20B449BB2138000220FE01A494B681B78DBB2194883544B6801334B600132D2B20B889BB2013BC4
:400E40009BB20B80124B1B889BB20BB1072AE9D90D4B1B78DBB2082B00D05AB10E490B7883F080030B700F210C4B197002210C4B197004E0022309490B7009490B70094BC3
:400E80001A70014B1A707047CC85FF1FCE85FF1FD885FF1F006000406286FF1FED85FF1FD085FF1FF085FF1F0222074B1A708022064B1A700F22064B1A700023054A137006
:400EC000054A137001207047D085FF1F6286FF1FED85FF1FCC85FF1FF085FF1F08B5FFF797FF08BD10B4194B197801F00F010239C9B2174A13889BB20B449BB21380002027
:400F000011E0144A5468144B1B5CDBB223705368013353600130C0B20139C9B213889BB2013B9BB213800B4B1B889BB20BB10029E7D10A4B19700A4A137883F08003137099
:400F40000B22084B1A7010BC704700BF29600040CE85FF1FD885FF1F00600040F085FF1F6286FF1FED85FF1F0623064A1370064A13708022054B1A700022054B1A7001203F
:400F8000704700BFD085FF1FED85FF1F6286FF1FF085FF1F064B9B6843B1054B9A6810709A6804490988518000229A60704700BFD885FF1FCE85FF1F08B5134B1A78D2B2A5
:400FC0001A701B78DBB213F0800F02D00F4A137008BD0220FFF7DEFF0D4B1B7803F06003202B05D0402B06D043B900F093FC06E000F086FE03E000F037FE00E0002010B905
:401000000322024B1A7008BD28600040ED85FF1F0060004008B5094B1978094A13889BB20B449BB213800022064B1A700120FFF7B1FF0322044B1A7008BD00BFCC85FF1F36
:40104000CE85FF1FD085FF1FED85FF1F08B50B4B1B78DBB2042B06D0062B07D0022B0BD1FFF7D8FF08BDFFF73DFF08BD0320FFF791FF0322024B1A7008BD00BFD085FF1F8E
:40108000ED85FF1F08B50022044B1A700120FFF781FF0322024B1A7008BD00BFD085FF1FED85FF1F08B50B4B1B7813F0FF0F07D0084A137843F0800307490B70002313703C
:4010C0000022064B1A700120FFF764FF0322044B1A7008BDEE85FF1F08600040D085FF1FED85FF1F08B5094B1B78DBB2042B06D0062B07D0022B07D1FFF7F0FE08BDFFF798
:40110000C1FF08BDFFF7CEFF08BD00BFD085FF1F08B5284B1B78DBB213F0100F48D013F0800F0CD003F00F03012B16D1FFF744FF214B1B7813F0800F11D1012312E013F09B
:40114000400F03D0FFF7CEFF01230BE013F0200F07D0FFF77BFF012304E0002302E0002300E0002323B3134B1B7813F0800F1FD1124B1B78124A12781343124A13701278F1
:40118000D2B2934214D10C4B1B78DBB2094A127812F0800F07D1084B1B78DBB2054A1370137803F00F03044A1278D2B29342EAD108BD00BF28600040ED85FF1F6286FF1F91
:4011C000F085FF1F296000400022064B1A80064B9B682BB1044A916800230B7092685380704700BFCE85FF1FD885FF1F08B50F4B1B889BB213B9FFF757FE15E002220C4BB4
:401200001A7000220B4B1A70FFF7DEFF0A4AD179937943EA0123054A128892B2934201D2024A1380FFF7F4FD012008BDD885FF1FD085FF1F6286FF1F0060004008B504225C
:401240000B4B1A7080220B4B1A70FFF7BDFF0A4AD179937943EA0123084A128892B2934201D2064A13800B22054B1A70012008BDD085FF1F6286FF1F00600040D885FF1F23
:40128000ED85FF1F0122094B1A700F3B9B7C084B1B7B03F00303934204D0054AD37B83F08003D3730122024B5A7370470B600040F485FF1F02220A4B1A700F3B93F8223078
:4012C000084B1B7E03F00303012B04D0054AD37E83F08003D3760122024B5A76704700BF0B600040F485FF1F04220C4B1A700F3B93F832300A4B93F8243003F00303012B9B
:4013000006D0074A92F8273083F0800382F827300122034B83F82520704700BF0B600040F485FF1F704700BF08B5FFF711FC08BD08B500F0A5FC08BD70B588B0054603AC90
:40134000174E0FCE0FC43368237035B322232B7003236B7001A8FFF7EFF9002402231AE008AA224412F81C2C08A901EB121111F8141CE954581C00212954981C02F00F022E
:4013800008AE324412F8142C2A54DA1CA9540134E4B20433DBB2212BE2D908B070BD00BF8426000010B401233EE019461A010C242148845403EB4300820020480244527945
:4013C00012F0FF0F13D003EB430082001B480244127912F0800F04D01801194A024494700AE01801164A02440820907004E01801134A0244802090704800084482000F486A
:401400000244D488E4B208010B4901448C71D088C0F30720C871D088C0B20871D288C2F307224A710133DBB2082BBED9FF22054B1A7010BC704700BF70600040F485FF1FC5
:40144000FC5F00400A600040074B1A78074B03EBC2035B681A7C824204D9C000103018444068704700207047CD85FF1F98260000F8B5404B1B7813F0FF0F79D03D4B187847
:401480000138C0B2FFF7E0FF047AC2683A4B1878C0B200236AE01178884264D13749095CC9B25578A9425ED1917801F07F01D67806F00306DFF8C8E04D000D44AF000EEBB5
:4014C00007054FF0000C85F803C092F802C085F804C092F803C00EF807C097882F8192F90250002D0DDA012E01D1072700E00D274E000E44B500224E35446F7101266E7088
:401500000CE0012E01D1052700E009274E000E44B5001B4E35446F7100266E70DFF868E00F010EEB07060125B57001FA05F529448D00134929440D89C5F307250EF8075058
:401540000D89EDB27570CE88F6B20E4D3D44AE71CE88C6F30726EE71CE88F6B22E71C988C1F30721697108320133DBB2A34292D3F8BD00BFEF85FF1FE485FF1F6086FF1F43
:40158000F485FF1F70600040FC5F0040034B1A78034B03EBC2035868704700BFCD85FF1F9826000008B5084B18780138C0B2FFF74BFF30B142681279023200EBC20358685F
:4015C00008BD002008BD00BFEF85FF1F2DE9F047002310E0724D5900CA189600AC190022AA55A270E2702281A272627034462C4462710133DBB2082BECD940B90AE00022B2
:401600006849CA546849CA540133DBB200E00023012BF4D9654B1B7813F0FF0F00F0BD80624B18780138C0B2FFF70EFF80464368DB7913F0400F05D05D4A137843F001038E
:40164000137004E05A4A137803F0FE03137098F808704FF0000A01266FE0D8F80C50002467E0AB7803F07F039E425FD1314606EB460083004A4803441B899BB2A888834267
:4016800006D206EB460E4FEA8E03454A134418812B784448C35CDBB26878834246D195F802C0DFF8FCE04B000B4498000EEB000383F804C0EB780EF80030EB7803F00303C9
:4016C00095F90200002813DA012B02D14FF0070901E04FF00D09DFF8C8E04B0003EB010C4FEA8C00704480F805900121417012E0012B02D14FF0050901E04FF00909DFF85C
:40170000A0E04B0003EB010C4FEA8C00704480F8059000214170AB790A2B01D0022B05D1524631462846FFF74BFB824608350134E4B2BC4295D30136F6B2082E8DD9D8F824
:401740000C0000220CE0837803F07F0310F8084B03EB43039900124B19448C720132D2B2BA42F0D3FFF71EFF124B1860002301210FE00B4D4A00501884002C44E380228961
:4017800092B213449BB203F0010213449BB20131C9B20829EDD9FFF705FEBDE8F08700BFF485FF1F6086FF1FD485FF1FEF85FF1FF185FF1FE885FF1F08B5154B1B7903F0C8
:4017C0007F035A1ED2B2072A20D8590019448A0010490A44917841F0010191700021D170517841F002015170127912F0800F05D01B01094A1A448D23937004E01B01064A3D
:401800001A4489239370FFF7AFFB08BD002008BD00600040F485FF1FFC5F0040274B1B7903F07F035A1ED2B2072A44D810B5590019448A0022490A44917801F0FE01917003
:401840000021D1701F4C1801215C01F07F012154517801F0FD015170127912F0800F13D003EB43018A0016490A445278D2B2012A04D1224602440C23937019E01B01114AA0
:401880001A440D23937013E003EB43018A000C490A445278D2B2012A05D11B01094A1A440823937004E01B01064A1A4409239370FFF75AFB10BD0020704700BF00600040D0
:4018C000F485FF1FFC5F004010B50E4B1C79E4B20D4B18780138C0B2FFF7B6FD43681B799C4201D9022C0AD8084A135DDBB208490B55044B9B78DBB21355012010BD0020C5
:4019000010BD00BF00600040EF85FF1F6086FF1FD485FF1F10B59C4B1B78DBB200219B4A118013F0800F00F0AD80974A5278D2B20A2A00F27481DFE812F0690072017201FA
:401940007201720172010B007201920072019A008D4BDB78DBB2012B09D1FFF717FE42688A4B5A6012221A80FFF740FC10BD864BDB78DBB2022B13D1834B9878FFF764FD2B
:40198000002800F04E814268804B5A605A68D1785A68927842EA01221A80FFF727FC10BD794BDB78DBB2032B05D02CE00A7811440133DBB201E000237549734A9278D2B213
:4019C000934203D20A7812F0FF0FEFD16E4B9B7813F0FF0F0BD06C4B9B78DBB26D4A127C934204D16C4C2046FFF7A6FC21460B7813F0FF0F00F017810B78644A138051603F
:401A0000FFF7F4FB10BD00F07BF910BD13F0030317D0022B40F009815C490B805A4B1B7903F07F0303EB43039A005C4B1A449278D2B25B4B1A7000225A704B60FFF7D6FB1F
:401A400010BD524902230B80564B1A78D2B2544B1A7000225A704B60FFF7C8FB10BD4B4B01221A80504A5A60FFF7C0FB10BD474A01231380444B1B794C490B445360FFF734
:401A8000B5FB10BD404A5278013A0A2A00F2CF80DFE812F04C00CD009800CD000B00CD00CD00CD001300CD003000374B9B78DBB23F4A1370FFF758FA10BD334B9B7803F015
:401AC000FF041BB1601EC0B2FFF7BEFC04B110B9002C40F0AE80344B1B78DBB29C4206D0314B1C700120334B1870FFF76FFDFFF73BFA10BDFFF7E8FE002800F09C80224A17
:401B00001379DBB21279D2B22B490A702B4AD25CD2B22649CB5CDBB29A4204D00122254B1A70FFF7A5FCFFF71FFA10BD03F00303012B17D04BB1022B7FD1134B9B7813F00C
:401B4000FF0F7CD1FFF76AFE10BD0F4B9B78DBB2012B76D1134A137803F0FD031370FFF703FA10BD084B1B79DBB2012B6BD8064B98781B79DBB21249CA5C22EA0002CA5442
:401B8000FFF7F2F910BD00BF00600040D885FF1F00270000E42700006886FF1FF485FF1F9481FF1FF185FF1FEF85FF1F6086FF1FEE85FF1FEC85FF1FE485FF1FD485FF1F4D
:401BC0006486FF1F03F00303012B17D04BB1022B3BD1224B9B7813F0FF0F38D1FFF7ECFD10BD1E4B9B78DBB2012B32D11C4A137843F002031370FFF7B7F910BD174B1B7909
:401C0000DBB2012B27D8154B98781B79DBB21549CA5C22EA0002CA54FFF7A6F910BD002010BD002010BD002010BD002010BD002010BD002010BD002010BD002010BD0020C1
:401C400010BD002010BD002010BD002010BD002010BD002010BD002010BD00BF00600040F185FF1F6486FF1F044B1B7813F0800F01D0024B5B780020704700BF0060004073
:401C8000024B1878C0F38010704700BF8F450040014B1B681864704708ED00E04001C0B2014B1870704700BF00E400E00122014B1A60704700E100E00122014B1A607047E1
:401CC00080E100E010B50446FFF7F6FF2046FFF7DFFF0720FFF7E2FFFFF7E8FF10BD00BF0230800803D000BF01380046FCD17047EFF3108072B6704780F31088704700BFE7
:401D000008B5144B1B7803F00303012B02D0022B04D00FE00F4B1B79DBB20CE00D4B1B7903F07F0303EB43039A000B4B1A44937ADBB200E00023022B07D8084A1268D35C1F
:401D4000022B04D1FEF7A0FF08BD002008BD002008BD00BF00600040F485FF1FE885FF1F014B1868704700BF6881FF1F0E4B70B51E460E4C0025E41AA410A54204D056F858
:401D8000253098470135F8E700F050FD084B094C1E46E41AA4100025A54204D056F8253098470135F8E770BD3828000038280000382800004028000010B5431E0A4491426C
:401DC00004D011F8014B03F8014FF8E710BD03460244934202D003F8011BFAE7704700000EB400B54FF402719CB0ADF814106FF00041049107914FF6FF711DAB029006902A
:401E0000084853F8042BADF81610006802A9019300F064F8029B00221A701CB05DF804EB03B070476881FF1F2DE9F0478E6882469E420C46914698463ED88A8912F4906F30
:401E40003AD02568096902236F1A656905EB450595FBF3F57B1C43449D4238BF1D4653050FD5294600F040FB064698B13A462169FFF7A2FFA38923F4906343F08003A381B8
:401E800013E02A4600F08EFB064670B92169504600F0DEFA0C23CAF80030A3894FF0FF3043F04003A381BDE8F08726613E44266046466561ED1BA560464528BF46464946FD
:401EC0003246206800F0A8FAA36800209B1BA36023681E442660BDE8F08700002DE9F04F9DB003938B8980461C060D4616460DD50B695BB9402100F0F7FA2860286118B96C
:401F00000C23C8F80030CDE040236B610023099320238DF82930DFF89CB130238DF82A3037463C4614F8013B1BB9B7EB060910D003E0252BF9D02746F3E74B463246294609
:401F40004046FFF771FF013000F0A780099B4B4409933B78002B00F0A08000234FF0FF3204930793059206938DF853301A930126052221784E4800F041FA671C049B38B114
:401F80004B4A3C46801A06FA00F018430490EFE7D90644BF20228DF853201A0744BF2B228DF8532022782A2A03D0079A00210A200BE0039A111D12680391002A10DA52421D
:401FC00043F00200079204900BE027463B780134303B092B03D800FB02320121F5E701B107923B782E2B1ED17B782A2B0AD1039B02371A1D1B680392002BB8BF4FF0FF33F6
:40200000059310E0002319460593781C0A2407463A780130303A092A03D804FB01210123F5E703B1059103223978224800F0E6F940B14023CBEB000003FA00F0049B01374C
:4020400018430490397806221B487E1C8DF8281000F0D4F988B1194B33B9039B073323F007030833039314E003AB00932A46144B04A94046AFF3008007E003AB00932A46E1
:402080000F4B04A9404600F093F8B0F1FF3F824603D0099B5344099342E7AB895B0601D4099801E04FF0FF301DB0BDE8F08F00BFF8270000FE270000022800000000000026
:4020C000291E00002DE9F04791461F460A698B6806469342B8BF1346C9F8003091F843200C46DDF8208012B10133C9F800302368990642BFD9F800300233C9F8003025684E
:4021000015F0060510D104F1190A07E00123524639463046C04701301AD00135E368D9F800209B1A9D42F1DB94F843302268003318BF012392060FD5E118302081F84300D2
:402140005A1C94F845102244023382F8431003E04FF0FF30BDE8F08704F1430239463046C0470130F4D02268D9F80050E36802F00602042A08BF5D1B2269A3680CBF25EA3B
:40218000E57500259342C4BF9B1AED184FF000091A344D4509D00123224639463046C0470130D5D009F10109F3E70020BDE8F0872DE9F04317460A7E85B06E2A98460646F0
:4021C0000C460C9B01F1430E00F0AE8011D8632A22D009D8002A00F0BB80582A40F0CA8081F84520834955E0642A1ED0692A1CD0C0E0732A00F0B08009D86F2A2ED0702AA2
:4022000040F0B8800A6842F020020A603EE0752A24D0782A3AD0ADE01A6801F14205111D1960136884F84230A8E021681A6811F0800F02D0111D196008E011F0400F02F18A
:402240000401196002D0B2F9003000E01368002B3CDA2D225B4284F8432037E021681A6811F0800F02D0111D196007E011F0400F02F10401196001D0138800E01368227E92
:402280005C496F2A14BF0A2208221BE078225A4984F845202268186812F0800F00F104051D6003D1550601D5038800E00368D00744BF42F0200222601BB9226822F020026F
:4022C00022601022002084F8430001E049490A226568002DA56008DB206820F0040020602BB9002D7DD175460CE0002B79D07546B3FBF2F002FB1033CB5C05F8013D0346FE
:402300000028F5D1082A0BD12368DA0708D5236962689A42DEBF302305F8013C05F1FF35C5EB0E0323612EE008681A6810F0800F496903D0101D1860136808E010F0400F22
:4023400002F104001860136801D0198000E0196000232361754616E01A68111D1960156800216268284600F049F808B1401B6060636804E004F1420584F8422001232361E3
:40238000002384F84330CDF800803B4603AA21463046FFF797FE013002D14FF0FF3026E023692A4639463046C0470130F5D023689B0710D5002504F1190907E001234A46E1
:4023C00039463046C0470130E7D00135E368039A9B1A9D42F2DBE068039B9842B8BF184605E00B7804F1420584F842308AE705B0BDE8F083092800001A28000010B5C9B262
:4024000002449042034605D01C7801308C42F8D1184610BD002010BD884210B501EB020301D8421E0BE09842FBD28118D21AD34204D013F8014D01F8014DF8E710BD994212
:4024400004D011F8014B02F8014FF8E710BD000038B50546002944D051F8043C0C1F002BB8BFE41800F0D4F81E4A1368114613B96360146030E0A3420DD92268A01883429B
:4024800001BF18685B681218226063600C6023E0A24203D813465A68002AF9D118681918A1420BD12168014458188242196013D110685268014419605A600DE002D90C23FD
:4024C0002B6009E021686018824201BF106852680918216062605C602846BDE8384000F098B838BD9C81FF1F70B5CD1C25F0030508350C2D38BF0C25002D064601DBA9428D
:4025000002D90C23336046E000F082F8234B1C681A462146A1B10B685B1B0ED40B2B03D90B60CC18CD501EE08C420BBF63684B681360636018BF0C4615E00C464968E9E7DF
:40254000174C23681BB9304600F052F820602946304600F04DF8431C18D0C41C24F00304A0420DD12560304600F053F804F10B00231D20F00700C31A0ED05A42E25070BD0A
:40258000211A304600F034F80130EBD10C233360304600F03EF8002070BD00BF9C81FF1F9881FF1FF8B5074615460E4621B91146BDE8F840FFF798BF1AB9FFF749FF284602
:4025C000F8BD00F027F885420ED929463846FFF78BFF044650B131462A46FFF7EDFB31463846FFF735FF01E03046F8BD2046F8BD38B5064C0023054608462360FDF706FF2F
:40260000431C02D1236803B12B6038BD8C86FF1F7047704751F8040C0028BEBF091851F8043CC0180438704700000000253038580D0A000020510040500000000140000456
:4026400080040140800B00140140000800400140000A004C01400002005001402000000000040140BC010048800000000111213141615363730000000809010105070704BF
:4026800004000000303132333435363738394142434445460000000001000000A026000001000000E4270000000000000000000001000000B826000001000000A0270000FA
:4026C00003000000E42600000000000000000000000000000000000000000000E0260000020A000000008103080002000100820240000A000100030240000A000203000009
:40270000040309042C0343007900700072006500730073002000530065006D00690063006F006E0064007500630074006F00720010035500530042005500410052005400B5
:402740003803430044004300200043006F006D006D0075006E00690063006100740069006F006E00200049006E00740065007200660061006300650026034300440043003A
:4027800020004400610074006100200049006E007400650072006600610063006500000009024300020101803209040000010202010305240010010424020205240600011E
:4027C00005240100010705810308000A09040100020A0000040705820240000007050302400000001201000202000008B40432F20100010280014300232D302B2000686C6B
:402800004C00656667454647003031323334353637383941424344454600303132333435363738396162636465660000F8B500BFF8BC08BC9E4670474D00000089040000EB
:40284000F8B500BFF8BC08BC9E4670472900000060280000C880FF1FA800000020050000000000009086FF1FFF0000007F800000010000000000E02EC05D0000180000007F
:4028800000366E0100C2010000000800C201000000080000A1200000000002000000000000000000000000000000000000000000000000000000000000000000000000001A
:4028C000F6270000000000000000000000000000000000000000000000000000000000000000000000000000000000000000000000000000000000000000000000000000BB
:402900000881FF1F000000000000000000000000000000000000000000000000000000000000000000000000000000000000000000000000000000000000000000000000F0
:402940000000000000000000000000000000000000000000000000000000000000000000000000000000000000000000000000000000000000000000000000000000000057
:402980000000000000000000000000000000000000000000000000000000000000000000000000000000000000000000000000000000000000000000000000000000000017
:4029C00000000000000000000000000000000000000000000000000000000000000000000000000000000000000000000000000000000000000000000000000000000000D7
:402A00000000000000000000000000000000000000000000000000000000000000000000000000000000000000000000000000000000000000000000000000000000000096
:020000040003F7
:0200000480007A
:40000000014500400352004001640040070201400B03014020040140410501400407014001090140020D0140011701400119014006400140074101400542014007430140BD
:400040000244014003450140014601400647014002480140014C014003500140025101407E026004610C7C40847F8E0290019202AA01B003D804DF0100400A801004184004
:4000800086109804B004C001C208C402E6028207860788028A018B038C048E018F02904093019441960698809E3F9F01A220A410A608A807AC0FAE10B080B240B43FB70333
:4000C000B820D206D401D804D904DB04DF01011203100602075809200A920E540F0211A813011558170219021B011C041D101E401F14200A218C22902340254029142A021C
:400100002B013188320133103682380239503A083DA04044410848054A10500152025C085E245F40600869106A826B506D286E047124721A730990409680A610C0FEC2FFE5
:40014000C4FFCA0FCC9FCE3FD007D20CD630D804A940AA50AF16E202E202E602EE80EE02EE023108340236403D10CCE0CE208402851095109C02A508A640E650528057080A
:40018000A508A640D4608508A508A640AB08AE80E240EE901080C4088480B080EE019C8008800B400D0285029C80C20EAE40EE40AF40000108010A0100A910020000BF400D
:4001C0001002C001C00720000007001880004007011FC0200200C0070800C0400404C00100013F0600274018FF00000FFF40000F000800300000000000000001320605002E
:40020000040E00C021FFFFFF022000050400000000000224040404040000000100004001400150014001701040100000000000000000000000000000000000000000000088
:40024000000004000C00100C0C000C00000C000000080004000000004000000000000000C0000000000B0B000000000000000000000000000000000000000000000000000C
:40028000000000000000000000000000000000000000000000000000000000000000000000000000000000000000000000000000000000000000000000000000000000003E
:4002C00000000000000000000000000000000000000000000000000000000000000000000000000000000000000000000000000000000000000000000000000000000000FE
:4003000000000000000000000000000000000000000000000000000000000000000000000000000000000000000000000000000000000000000000000000000000000000BD
:40034000000000000000000000000000000000000000000000000000000000000000000000000000000000000000000000000000000000000000000000000000000000007D
:0200000490006A
:0400000000004005B7
:0200000490105A
:04000000BC90ACAF55
:0200000490303A
:02000000665444
:0200000490402A
:4000000000000000000000000000000000000000000000000000000000000000000000000000000000000000000000000000000000000000000000000000000000000000C0
:400040000000000000000000000000000000000000000000000000000000000000000000000000000000000000000000000000000000000000000000000000000000000080
:400080000000000000000000000000000000000000000000000000000000000000000000000000000000000000000000000000000000000000000000000000000000000040
:4000C0000000000000000000000000000000000000000000000000000000000000000000000000000000000000000000000000000000000000000000000000000000000000
:0200000490501A
:0C00000000012E16106900012E2576BDAF
:00000001FF