:4000000000800020110000000D0B00000D0B000008B5044B1A6803F53F5302331A6000F07DFD00BFFA46004010B5054C237833B9044B13B10448AFF300800123237010BDCD
:400040005881FF1F00000000D0160000084B10B51BB108490848AFF300800848036803B910BD074B002BFBD0BDE81040184700BF000000005C81FF1FD0160000C880FF1F16
:4000800000000000024A13780133DBB2137070477481FF1F024A53780133DBB2537070477481FF1F024A93780133DBB2937070477481FF1F024AD3780133DBB2D3707047BF
:4000C0007481FF1F024A13790133DBB2137170477481FF1F024A53790133DBB2537170477481FF1F024A93790133DBB2937170477481FF1F30B4002408E00D78034603F8FF
:40010000025B4D7845700431043418469442F4DB30BC7047F8B51E4F4FF480433A0C0121084601F067FA1B4C207000F0F3FD1A4D287000F0EFFD194E307046F24E42B9B2C1
:40014000287800F015FE46F28D42154989B2307800F00EFE012332784FF46061287800F0F3FD00232A780121307800F0EDFD0421207800F09DFD0121207800F045FD297809
:40018000207800F089FD0121207800F03DFDF8BDA0A9FF1F9891FF1FB8BFFF1FA3B7FF1FA5B7FF1F2DE9F84F41F6FF734FF480420121084600F030FFDFF86CB28BF8000051
:4001C00041F6FF734FF480420121084600F0D4FF844B187041F6FF734FF480420121084600F0BAFE804B187041F6FF734FF480420121084601F020F87C4B187041F6FF738F
:400200004FF480420121084601F026F9784B187041F6FF734FF480420121084601F094F8744B187041F6FF734FF480420121084601F09AF9704B187000F06CFDDFF8ECA16A
:400240008AF8000000F066FDDFF8E49189F8000000F060FDDFF8DC8188F8000000F05AFD664F387000F056FD654E307000F052FD644D287000F04EFD634C20709AF800000D
:40028000062302464FF4806100F05EFD99F80000062302464FF4806100F056FD98F80000062302464FF4806100F04EFD3878062302464FF4806100F047FD30780623024603
:4002C0004FF4806100F040FD2878062302464FF4806100F039FD2078062302464FF4806100F032FD494A92B246F24B419AF8000000F03EFD464A92B246F2495199F8000077
:4003000000F036FD434A92B246F2484198F8000000F02EFD404A92B246F24551387800F027FD3E4A92B246F24751307800F020FD3B4A92B246F24741287800F019FD394AFA
:4003400092B246F24541207800F012FD9AF800109BF8000000F0A0FC99F80010214B187800F09AFC98F800101F4B187800F094FC39781E4B187800F08FFC31781C4B187821
:4003800000F08AFC29781B4B187800F085FC2178194B187800F080FC01219BF8000000F033FC01210F4B187800F02EFC01210E4B187800F029FC01210C4B187800F024FC93
:4003C00001210B4B187800F01FFC0121094B187800F01AFC0121084B187800F015FCBDE8F88F00BFA1B7FF1F9081FF1F9DA1FF1FA7B7FF1FA2B7FF1FA6B7FF1FBCC7FF1FDD
:400400009691FF1F9791FF1FA4B7FF1F9489FF1F9C99FF1FB8B7FF1FBCBFFF1F9C91FF1F9481FF1FA0A1FF1F9EA1FF1F9591FF1F9491FF1F9CA1FF1F08B562B6FFF7B2FE6D
:4004400000F028FE022000F0A1FC00F03BFD022000F09CFC00F0BEFD022000F097FC00F0C9FE022000F092FC00F0D4FF022000F08DFC00F047FF022000F088FC01F052F8D9
:40048000022000F083FC00F013FE022000F07EFC00F026FD022000F079FC00F0A9FD022000F074FC00F0B4FE022000F06FFC00F0BFFF022000F06AFC00F032FF022000F0F4
:4004C00065FC01F03DF8022000F060FC00F0CCFC00F096FC1A4B1A7802F0FD021A701A78184B1A70FFF716FE022000F04FFC164800F00CFE022000F049FC144800F02EFE4E
:40050000022000F043FC124800F018FD022000F03DFC104800F0C8FE022000F037FC0E4800F0D2FF022000F031FC0C4800F044FF022000F02BFC0A4801F04EF808BD00BF4A
:400540008D640040A5B7FF1F8500000095000000A5000000B5000000C5000000D5000000E500000008B562B6FFF766FF8E4B1B7813F0FF0F1FD08D4B1A788D4D05EB822269
:4005800092B246F24B418B4B187800F0F1FB864CE1794FF4806205EB81218748FFF7AAFD237A0133DBB22372637AB3FA83F35B096372002323707C4B5B7813F0FF0F1FD026
:4005C0007A4B1A787D4D05EB822292B246F249517B4B187800F0CCFB734CE1794FF4806205EB81217748FFF785FD237A0133DBB22372A37AB3FA83F35B09A372002363707A
:40060000694B9B7813F0FF0F1FD0684B1A786E4D05EB822292B246F248416C4B187800F0A7FB614CE1794FF4806205EB81216848FFF760FD237A0133DBB22372E37AB3FAC3
:4006400083F35B09E3720023A370574BDB7813F0FF0F1FD0554B1A785E4D05EB822292B246F245515C4B187800F082FB4E4CE1794FF4806205EB81215848FFF73BFD237AE3
:400680000133DBB22372237BB3FA83F35B0923730023E370444B1B7913F0FF0F1FD0434B1A784F4D05EB822292B246F247514D4B187800F05DFB3C4CE1794FF4806205EBC5
:4006C00081214948FFF716FD237A0133DBB22372637BB3FA83F35B09637300232371324B5B7913F0FF0F1FD0304B1A783F4D05EB822292B246F247413D4B187800F038FB1C
:40070000294CE1794FF4806205EB81213948FFF7F1FC237A0133DBB22372A37BB3FA83F35B09A373002363711F4B9B7913F0FF0F1FD01E4B1A78304D05EB822292B246F224
:4007400045412E4B187800F013FB174CE1794FF4806205EB81212A48FFF7CCFC237A0133DBB22372E37BB3FA83F35B09E3730023A3710D4B1B7ADBB2062B7FF6F7AE214AB3
:40078000137843F002031370084A1378B3FA83F35B091370044AD379B3FA83F35B09D37100231372E2E600BF7481FF1FCC80FF1F9489FF1F9591FF1FA0A9FF1F9C99FF1FC2
:4007C0009491FF1FA0ABFF1FB8B7FF1F9CA1FF1FA0ADFF1FBCBFFF1FBCC7FF1FA0AFFF1F9C91FF1F9691FF1FA0B1FF1F9481FF1F9791FF1FA0B3FF1FA0A1FF1FA4B7FF1F92
:40080000A0B5FF1F8D640040F0B40022174611E050F82760F3B226F0FF0608E001EB420511F812406D78A5550132013BDBB2002BF4D10137272FEBD9F0BC7047064B1B7897
:40084000DBB203F00701054A11701B09013213704422034B1A707047CF0100496E5800407658004008B50A46002100F028FF08BD38B50222234B1A801823234A13700821AD
:4008800002321180023213700622204B1A700422A3F580731A701E4B1B78DBB21D4A137000241D4B1C804FF4716203F21E231A8041F25122023B1A8019250CE0174B1B7847
:4008C00003F0010343EA440404F003044FF4F07000F0AEFE013D0DB1032CEFD10E4B07221A7000220E490A704820023108701A700222033B1A700B4A137843F00303137043
:4009000038BD00BF80400040824000400043004089010049A1460040044000402542004006400040A243004008B500F0BDFE08BD38B572B6504A137843F004031370002466
:400940000CE04E4D630019194A0011462A44084691882858FFF786FF0134E4B20C2CF0D900240CE04548A20011194B000344B3F85820596D186DFFF7D7FF0134E4B2072CEB
:40098000F0D93F494FF09040FFF73EFF04213D48FFF768FF04223C493C48FFF7C5FF04223B493C48FFF7C0FF04223B493B48FFF7BBFF04223A493B48FFF7B6FF04223A4974
:4009C0003A48FFF7B1FF042239493A48FFF7ACFF042239493948FFF7A7FF04213848FFF741FF384A137843F0020313701032137843F002031370344C237843F040032370F0
:400A0000A2F58632513A137843F0100313700A222E492F48FFF788FF0A222E492E48FFF783FF0A222D492E48FFF77EFF0A222D492D48FFF779FF08222C492D48FFF774FFD3
:400A40000A222C492C48FFF76FFF2C4A137843F0080313702A4D61232B70FFF709FFC1232B700122274B1A70FFF7E8FE0E2221462548FFF759FF38BDE8460040D41600008E
:400A8000A000004800760040241100480876004028110048107600402C110048187600403011004820760040341100482876004038110048307600403C11004838760040FF
:400AC0004076004003500140A0430040E010004800510040EC100048C0510040F8100048F05100400411004810510040101100482251004018110048305100402243004029
:400B00000048004004000840B043004008B500F09FFD03680C2B00D1FEE7FEE708B5104E104D16E029686B68AC68002204E051F8040B43F8040B0432A242F8D1E868002245
:400B400003E0002143F8041B04328242F9D11035013E002EE6D100F081FDFFF703FDFEE7010000009C17000008B5114A114B1A60114A136843F40073136000230AE0032BD1
:400B800003D80E4A52F8231000E00D490D4A42F8231001332F2BF2D90B4B1A780B4B1A70084A0B4B1A60FFF7C3FE00F013F808BD0004FA050CED00E014ED00E00000000014
:400BC0000D0B00000080FF1FBC760040C080FF1F08ED00E00B4A7F2313708021517007E0DA0002F1804202F5F042013BDBB21370002BF5D1DB0003F1804303F5F043002203
:400C00001A707047D080FF1F172815D831B103010A495A5C42F020025A5405E0030107495A5C02F0DF025A540001044A835C43F001038354002070470120704710700040CD
:400C400017280BD80001064A835C03F0F103490001F00E011943815400207047012070471070004041F6FF73994201D14FF4005141F6FF739A4201D14FF40052172808D85D
:400C8000C00000F1804000F5EC408180C280002070470120704700BF172805D8034B03EB00104172002070470120704710700040172809D8054B03EB0010037901F0070184
:400CC0001943017100207047012070471070004017281BD810B4C00000F1804404F5EC44D201D2B201F07F01114321709DF804201201D2B203F00F03134363709DF808302B
:400D000003F00F03A3700020E07001E00120704710BC704710B500F093FC0A4B5B78182B0BD9084A1478013B5370E30003F1804303F5F0431B78137000E0FF2400F084FC31
:400D4000204610BDD080FF1F10F0800F0CD111F4704F0BD1C00000F1804000F5F04001808270C37000207047012070470120704710F0800F08D1C00000F1804000F5F04005
:400D80008180C280002070470120704710B5044605E0084B186800F04BFCA4F50044B4F5004FF6D8034B586800FB04F000F040FC10BD00BFD880FF1F08B500F041FC094A38
:400DC000137843F020031370013A137843F010031370013A137843F01003137000F034FC08BD00BF9E640040014B1878704700BF6D640040014B1878704700BF6C640040C6
:400E000008B501E00A4B1B780A4B1B7813F0200FF8D100F015FC084B1A7842F001021A701A7802F0FE021A7000F00EFC08BD00BF5E6400406C6400409E64004008B50F22D6
:400E4000074B1A70FFF7DCFFFFF7CEFFFFF7D2FF0222044B1A700022013B1A7008BD00BF8E6400408D64004008B5054B1B7823B9FFF7E4FF0122024B1A70FFF79DFF08BDC9
:400E80008681FF1F08B500F0DBFB064A137843F02003137000F0D8FB034A137843F00403137008BD9A6500407B650040044B1A7802F0F8021A701A78D2B21A70704700BFED
:400EC0008964004008B5054B1B7823B9FFF7EEFF0122024B1A70FFF7D5FF08BD8781FF1F08B500F0ADFB064A137843F01003137000F0AAFB034A137843F00203137008BDD1
:400F0000996400407B650040014B1B689865704708ED00E04001C0B2014B1870704700BF06E400E04022014B1A60704700E100E04022014B1A60704780E100E010B5044666
:400F4000FFF7F6FF2046FFF7DFFF0720FFF7E2FFFFF7E8FF10BD00BFF0B583B016461F460B4C062525700023019300932B460A4601462846FFF7ACFE3A4631462078FFF750
:400F800071FE02212078FFF75BFE207803B0F0BDE880FF1F08B500F053FB064A137843F02003137000F050FB034A137843F00403137008BD9965004079640040044B1A78BA
:400FC00002F0F8021A701A78D2B21A70704700BF8865004008B5054B1B7823B9FFF7EEFF0122024B1A70FFF7D5FF08BD8881FF1F08B500F025FB064A137843F010031370B8
:4010000000F022FB034A137843F00203137008BD9865004079640040F0B583B016461F460B4C032525700023019300932B460A4601462846FFF74CFE3A4631462078FFF7BF
:4010400011FE02212078FFF7FBFD207803B0F0BDE980FF1F08B500F0F3FA064A137843F02003137000F0F0FA034A137843F00403137008BD9B6400407A640040044B1A7879
:4010800002F0F8021A701A78D2B21A70704700BF8A64004008B5054B1B7823B9FFF7EEFF0122024B1A70FFF7D5FF08BD8981FF1F08B500F0C5FA064A137843F01003137056
:4010C00000F0C2FA034A137843F00203137008BD9A6400407A640040014B1B68D864704708ED00E04001C0B2014B1870704700BF03E400E00822014B1A60704700E100E0CD
:401100000822014B1A60704780E100E010B50446FFF7F6FF2046FFF7DFFF0720FFF7E2FFFFF7E8FF10BD00BF014B1B68D865704708ED00E04001C0B2014B1870704700BF97
:4011400007E400E08022014B1A60704700E100E08022014B1A60704780E100E010B50446FFF7F6FF2046FFF7DFFF0720FFF7E2FFFFF7E8FF10BD00BFF0B583B016461F4630
:401180000B4C072525700023019300932B460A4601462846FFF79CFD3A4631462078FFF761FD02212078FFF74BFD207803B0F0BDEA80FF1F08B500F043FA064A137843F074
:4011C0002003137000F040FA034A137843F00403137008BD9565004076640040044B1A7802F0F8021A701A78D2B21A70704700BF8664004008B5054B1B7823B9FFF7EEFF7B
:401200000122024B1A70FFF7D5FF08BD8A81FF1F08B500F015FA064A137843F01003137000F012FA034A137843F00203137008BD9664004076640040F0B583B016461F465B
:401240000B4C022525700023019300932B460A4601462846FFF73CFD3A4631462078FFF701FD29462078FFF7EBFC207803B0F0BDEB80FF1F014B1B689864704708ED00E02D
:401280004001C0B2014B1870704700BF02E400E00422014B1A60704700E100E00422014B1A60704780E100E010B50446FFF7F6FF2046FFF7DFFF0720FFF7E2FFFFF7E8FF14
:4012C00010BD00BF08B500F0BBF9064A137843F02003137000F0B8F9034A137843F00403137008BD9464004075640040044B1A7802F0F8021A701A78D2B21A70704700BF94
:401300008764004008B5054B1B7823B9FFF7EEFF0122024B1A70FFF7D5FF08BD8B81FF1F08B500F08DF9064A137843F01003137000F08AF9034A137843F00203137008BDCE
:401340009764004075640040F0B583B016461F460B4C052525700023019300932B460A4601462846FFF7B4FC3A4631462078FFF779FC02212078FFF763FC207803B0F0BD02
:40138000EC80FF1F014B1B685865704708ED00E04001C0B2014B1870704700BF05E400E02022014B1A60704700E100E02022014B1A60704780E100E010B50446FFF7F6FF4B
:4013C0002046FFF7DFFF0720FFF7E2FFFFF7E8FF10BD00BF08B500F033F9064A137843F02003137000F030F9034A137843F00403137008BD9465004077650040044B1A7816
:4014000002F0F8021A701A78D2B21A70704700BF8864004008B5054B1B7823B9FFF7EEFF0122024B1A70FFF7D5FF08BD8C81FF1F08B500F005F9064A137843F01003137092
:4014400000F002F9034A137843F00203137008BD9864004077650040F0B583B016461F460B4C012525700023019300932B460A4601462846FFF72CFC3A4631462078FFF7C3
:40148000F1FB02212078FFF7DBFB207803B0F0BDED80FF1F014B1B685864704708ED00E04001C0B2014B1870704700BF01E400E00222014B1A60704700E100E00222014B8B
:4014C0001A60704780E100E010B50446FFF7F6FF2046FFF7DFFF0720FFF7E2FFFFF7E8FF10BD00BF08B500F0ABF8064A137843F02003137000F0A8F8034A137843F0040339
:40150000137008BD9164004070640040044B1A7802F0F8021A701A78D2B21A70704700BF8564004008B5054B1B7823B9FFF7EEFF0122024B1A70FFF7D5FF08BD8D81FF1F70
:4015400008B500F07DF8064A137843F01003137000F07AF8034A137843F00203137008BD9564004070640040F0B583B016461F460B4C042525700023019300932B460A46E5
:4015800001462846FFF7A4FB3A4631462078FFF769FB02212078FFF753FB207803B0F0BDEE80FF1F014B1B681865704708ED00E04001C0B2014B1870704700BF04E400E0D8
:4015C0001022014B1A60704700E100E01022014B1A60704780E100E010B50446FFF7F6FF2046FFF7DFFF0720FFF7E2FFFFF7E8FF10BD00BFF0B583B016461F460B4C0825D3
:4016000025700023019300930A4601462846FFF75FFB3A4631462078FFF724FB02212078FFF70EFB207803B0F0BD00BFEF80FF1F0230800803D000BF01380046FCD1704785
:40164000EFF3108072B6704780F31088704700BF014B1868704700BF5081FF1F0E4B70B51E460E4C0025E41AA410A54204D056F8253098470135F8E700F07EF8084B094CF4
:401680001E46E41AA4100025A54204D056F8253098470135F8E770BD8417000084170000841700008C17000010B5431E0A44914204D011F8014B03F8014FF8E710BD03464C
:4016C0000244934202D003F8011BFAE77047000000000000405100403000000001408002000301408003000701408003000B01400003800E0140800100140140800000156F
:401700000140800100170140800100190140000300400140000A004C01400002005001402000000010510140580D0048060080020140600D0048800080060140E00D00489D
:401740008000800A0140600E00488000000E0140E00E0048800080140140600F0048800080160140E00F004880008018014060100048800043000000F8B500BFF8BC08BC11
:401780009E4670474D000000690B0000F8B500BFF8BC08BC9E46704729000000B0170000C880FF1F90000000684600000000000000000000010000007F800000FF010000BA
:4017C0000000C05D80BB000030000000006CDC02FFFFFFFFFFFFFFFF0000000000000000000000000000000000000000000000000000000000000000741700000000000094
:401800000000000000000000000000000000000000000000000000000000000000000000000000000000000000000000000000000000000000000000F080FF1F000000001A
:401840000000000000000000000000000000000000000000000000000000000000000000000000000000000000000000000000000000000000000000000000000000000068
:401880000000000000000000000000000000000000000000000000000000000000000000000000000000000000000000000000000000000000000000000000000000000028
:4018C00000000000000000000000000000000000000000000000000000000000000000000000000000000000000000000000000000000000000000000000000000000000E8
:4019000000000000000000000000000000000000000000000000000000000000000000000000000000000000000000000000000000000000000000000000000000000000A7
:020000040003F7
:0200000480007A
:4000000008520040056400400465004051000140360101401A0201404B030140580401404B050140190601404F0701405F08014043090140180A01404C0B0140520C0140EA
:40004000480D01402D0E01403F0F01401A140140531501401C160140481701401218014051190140471A01404C1B0140084001400F4101400D4201400E4301400B45014087
:4000800004460140014701400F480140144901400A4C0140084D01400850014002510140000209101002110618226084618C7901817F827F847F8B7F8E0F847F857F897F19
:4000C0008A7F0240063F08FF0C800E40100812C0141016C018C01A201B061EBF1F04240226C0270328012AC02C042EC02F03350136FF37063F105206580459045B045C110B
:400100005D105F01802781048218830186078707880789078C048E018F079320941F950296209701980799409A189D109F08A10FA20FA310A402A580A601A801A941AA0627
:40014000AB06AE07AF3FB140B20FB408B580B630B73FB980D602D724D804D904DB04DC11DD10DF010020010402800301040205020602071409150A020D2812011328154071
:400180001680176819801A021D682008224023022402262229042B012D812EA432503502362037883D683E025E045F04670469346A046D2A6F557623772882028531868039
:4001C000C0FFC26FC4F7CAFACCFCCEF0D820E202051007C009C00B200D040FC011FF174019021BC01FBF210823C0273F29012BC02D802F4031FF5602572459045B045C1075
:400200005D105F0100840122020209010A100B081110122013801410150818441A101B112008222027C029222B102D412E242F04322233443520378A39813A203C803D1866
:4002400040444210480449044A01510458905E045F0467046A246B086D5B6E086F0474407520762082018504900291209620988099409B039C209D04A128A410A701ACA460
:40028000B508B780C00FC20EC407CAF7CCFFCE7DD007D20CD60CD820E205008002400410050206C00A4012BF1308163F170C18021AC01C041EC0200822C0230524C02620F4
:4002C00028012AC02B052CFF30FF310C330235013F1056025724580459045B045C115D105F01850289018E03921096049A039D01A008A210AA06AE08B018B102B206B60182
:40030000B701BE40C035C102C201C404C50CC6E0C809C9FFCAFFCBFFCC02CD20CF05D004D206D401D804D904DA04DB04DC11DD11DF01E240E301E440E501E650E701E8408A
:40034000E901EA70EB10EC40ED100002010403040540060209040A800B050D020E200F0811011202132815A017011A801C201D021E201F40201822022680278029213202D8
:400380003304378038043E24452A46024BC04C014F0857105F5060046330680169056A026B086D086F04711073257C047D088280880190029160920499409A219B019C20F2
:4003C000A128A410A601A942AA14C08EC27FC4DFCA05CC13CE62D0F0D210D630D804E210050206080E011101150116141A141E02260C2C012E0232103301340C360337022F
:400400003E0452065401580459045B045C115D105F010040010502100404060209280A800B010E120F0810011204132815401704184019601C041E021F08210E242027026F
:40044000280129402A102B40313832413504370238503A043B013D08404041144961538058805A205C205F406D086F047D087F108010820285028D4090109145928293016F
:400480009580988099109A019B289C209D21A340A601AB58AC84C0ADC2EFC4A7CA0DCCCFCE4FD007D20CD63CE022E208E410EE200101030207040F0211041308170827016A
:4004C000350C37034043410642054402460C47E0482449FF4AFF4BFF4C024D204F055004540159045A045B045C105D115F01624063016440650166506701684069016A7044
:400500006B106C406D10800781408607870788078A188B208D048E408F019102924093019580960F98279A189B3F9C1F9E209F07A110A207A308A402A541A601A706A8013E
:40054000A90FAA06AB10AC04AD07AE01B00FB180B240B340B408B53FB630B920BE04D206D401D804D904DB04DC11DD10DF01000401200241084009200AA010A011401204A6
:40058000132019211A021B8821392308240825402704284029212AC42E043080321637053884396A3C083D803F024440451047084D204E01574258285A085B405C805E20D3
:4005C00069106A0880208202871288049408972498809B01A301A410B301B508B780C00FC20FC40FCA4FCCCFCEDFD0E0D230D63CE022EE200504070209040B0111031901BB
:400600001A031B041E042203260630013107360639023E0152065401580459045B045C015D105F01040105080608070109200A010E890F20108013081501160117081A4189
:400640001C401E8022012340241226102E802FA83221365938243E2A3FA0452A46804C854E104F8054405A605D0C61086208650869046B086D016E0A6F2D762B8A018B0140
:400680008C118F0490249440976498809E299F04A12AA220A450A605A740AA04AB01AC21AE01C0F0C2F3C4BCCAF0CCF5CEF6D0E0D230D60CD840E080E210E808001F0220C9
:4006C0000401060607060B030E0F10271218140716181A071B041E072407270328022A012C042E01300F32083306343037013F405440580459045B045C115F01800481202E
:4007000083D0848285D0860489D08A808C068DD08E80900294079508963897069809992B9A569B849DD09E10A086A1D0A461A513A60EA72CA880A927AA06AB48AC86B008FD
:40074000B1F0B280B30EB40FB670B701B820BB0ABE05BF40D409D604D804D904DB04DF01000201460204044005010620080109040A050D080E0A0F8011101220138214809A
:4007800016091705180419181A451D2B2181220423102711281029102A022F1032243340371039563C203F04582059045A4261806202650866106701820283108B809020EA
:4007C00091549202940496049750981199069A169BC29D10A104A220A380A440AA01C0BFC2FFC4EFCA47CC2ECE6FD60FD879EE0180C0820284C085648604870889718AFF5F
:400800008B828CC08D2C8E018F40909091A492409340947F95C09680972F981F9A209D6C9E60A080A16CA4C0A591A608A74EA940AB2CAD08AE9FAF10B30FB531B6FFB7C0D3
:40084000BBB0BE40D804D904DF0100060120020105100602075009A40B400C100E680F0212201580170919201B811D802002212222012430250C2634270529102A022B01C0
:400880002D102E062F013001310832203341378539563C103D043E4040044102430449064A054B0251415215631069546A406BD8720273028440C0FFC2FFC4B4CAFDCCDF2B
:4008C000CE7FD007D20CD802000802C0063F08C00A200CFF12BF140116C018021AC01C041EC0241026C02A402C802E4036FF5602572458045B045C015D105F0100040111C1
:40090000020104600584074009090A040B010D200E621002110413201608170218021C401D221E101F2026032E612F2035803616380439083C803E0845264E224F105704E8
:400940005E105F1060046720680269156A026C106E296F4270407108720473017440750476287702840288089108924093209482951496179A019B209C089D049E089F02BE
:40098000A105A508A634A706AF04B308C0FFC2FFC457CAF0CCF0CE50D0E0D230D844E04AE680000102C004FF070208020AC012BF14C0162018101AC01C081EC0200422C0DA
:4009C00026402A3F2B012C802D012E402F0230FF3303580459045C115F0101A003100404060807400810090A0A060E69115714011604170619A01A801B081E4020402102CA
:400A000023042504288029A02C012F0630103108324134203620388239553D0840C8430849A252406604672069286B10810483408640870489108B209004932096109A013E
:400A40009B049C209D06A704AD02AF48B110B610B780C077C2FFC4FFCA3DCC0FCE4FD007D20CE008E608EA40EC080B030F05110813101B101F0223052B0831033518370445
:400A80003F40540159045B045C105D105F010080031408020A140B01120A130819101A801B092210251026602740280829012A882E202F8031043210334035013620374238
:400AC0003880391A3D103F8040044204430949184A0952015E805F1060086880692A6B0270607104720873207A017B018430850888028B0C911093109480950896A09724D4
:400B000098089C209E819F20A3C0A4B0A510AE14B140B508B748C007C20FC407CAAFCCBECE3FD007D20CD630D804E420EA02EE200108020703C00510060707C00A200B4065
:400B40000C400D040FC0100F121013BF14411501160617C0180219C01A011B201C101D801E081F40200422012480273F280729022BC02DFF2E3F308031FF343F36403820F1
:400B800056025724580459045B045C115D105F018301870489048B089101920293029B089E019F02AA03AE01B003B50CB603B703D206D804D904DB04DC11DD10DF01004096
:400BC00001210310080209200A100B020E800F02100811081202130115101601184419201A011D401E8022022690270129502B203108325236903702388039193E023F1468
:400C00005C085E046008684869096AA06B166D186E046F20704071387210730987148A118E02930294049610970198029A019F1DA301A440A602A910AB01B110B2A0B3106F
:400C4000C00FC29FC4CFCA0ECCBFCEEFD804E040E280E680E8203B083F12411082048510CEE0D010E2C03B023C103D01420256048304871097189A04AF01CEE0D010D44073
:400C8000E290EE1047045180544083808D8094109501970A9B049E02D080D460E6208040830285018B028E049501970A9E02A380A810B040E230E420EE8005205240570141
:400CC00058808B019D20A920C001D405D604E00188809C80AE40E0048720050206045382868294409E069F02A382AF04B701C0A0D4A0E240E610EE10038004400B041702A8
:400D00005620668087048A208F8094409A809F02AD02C090C240C420D440D680E040EC100F1061029B209E10A102AE10B502C204D802EC08121077209B209E10B310C408D1
:400D4000DE04EE01000308020A020C030E0310021A021C0200550155AAAA020000000000000007071F00200002010106040F01100004070107071800010006200000003F09
:400D800000000007271018080702000100000F00300008000F3F0000002000000000000026030400050C000E11FFFFFF022000050400060001000000040404041111000157
:400DC00000004001400150014001701040100000000000000000000000000000000000000004070100410706004000001F10200800000F0727001820020201010400013F5F
:400E0000000700000700000001000607070F18100F40003F3000080000080000000000004305060002C00E0006FFFFFF02200005040000000100000004040404111100010A
:400E40000000400140015001400170104010000000000000000000000000000000000000C004200100023F010241C006800040200000BF07010FC0101040C000FF00003F8A
:400E80000880C00000004007000700000410C008FF0000400080003F00800000000000004503020006CE0E0007FFFFFF02200005040000000000022804040404111100018A
:400EC0000000400140015001400170104010000000000000000000000000000000000000801000800441230000407C00000102407001000011070218002201088041000008
:400F000000410000480003000008002100040000804000000F80703F02800000000040412306400005CEFBBD3FFFFFFF2200F008040000000000022804040404000000016E
:400F40000000C00040011011C001001140014001000000000000000000000000000000000000070001020601000007000704180100000F20070000071F072000270F1810DE
:400F80000400010700100008020101060000003F083F30000F000000000200000000000025040600030E000C11FFFFFF02200005040000000000022804040404111100015A
:400FC00000004001400150014001701040100000000000000000000000000000000000000000003F400000071F07200007041801270018070141060602020101004007003C
:4010000000000F200000070007100008040F0110403F30000F40080000020000000000006405030002E00C0006FFFFFF02200005040006000000000004040404111100016E
:401040000000400140015001400170104010000000000000000000000000000000000000000800C0001007C007000040000407C007001800010106C0270018BF04FF0100F2
:4010800000800040020201C01F00203F00C00F20300008000FFF0000000000000000000062030500040E00C021FFFFFF02200005040000000000022404040404111100011A
:4010C00000004001400150014001701040100000000000000000000000000000000000000200000202000200000000008C00428C8C008C000000000005000A050500050074
:40110000000000001000201B1B001000000000000807070007000000220049222200220000000000000100000002000000030000000400000005000000060000000700002F
:40114000000000000000000000000000000000000000000000000000000000000000000000000000000000000000000000000000000000000000000000000000000000006F
:40118000000000000000000000000000000000000000000000000000000000000000000000000000000000000000000000000000000000000000000000000000000000002F
:4011C00000000000000000000000000000000000000000000000000000000000000000000000000000000000000000000000000000000000000000000000000000000000EF
:4012000000000000000000000000000000000000000000000000000000000000000000000000000000000000000000000000000000000000000000000000000000000000AE
:0200000490006A
:0400000000004005B7
:0200000490105A
:04000000BC90ACAF55
:0200000490303A
:02000000A40F4B
:0200000490402A
:4000000000000000000000000000000000000000000000000000000000000000000000000000000000000000000000000000000000000000000000000000000000000000C0
:400040000000000000000000000000000000000000000000000000000000000000000000000000000000000000000000000000000000000000000000000000000000000080
:400080000000000000000000000000000000000000000000000000000000000000000000000000000000000000000000000000000000000000000000000000000000000040
:4000C0000000000000000000000000000000000000000000000000000000000000000000000000000000000000000000000000000000000000000000000000000000000000
:0200000490501A
:0C00000000012E16106900012E23B478B8
:00000001FF